:020000040800F2
:10000000E03101205D020008EB030008A7030008AF
:10001000E9030008ED020008D30600080000000014
:100020000000000000000000000000009D0100082A
:100030002103000800000000F9010008C1050008C4
:1000400077020008770200087702000877020008AC
:10005000770200087702000877020008770200089C
:10006000770200087702000877020008770200088C
:10007000770200087702000877020008770200087C
:10008000770200087702000877020008770200086C
:10009000770200087702000877020008770200085C
:1000A000770200087702000877020008770200084C
:1000B000770200087702000877020008770200083C
:1000C000770200087702000877020008770200082C
:1000D0007702000849060008770200087702000846
:1000E000770200087702000877020008770200080C
:1000F00077020008770200087702000877020008FC
:100100007702000829040008770200087702000837
:1001100077020008770200087702000877020008DB
:10012000770200087702000877020008EF02000853
:1001300077020008770200087702000877020008BB
:1001400077020008770200087702000877020008AB
:10015000770200087702000877020008770200089B
:10016000770200087702000877020008770200088B
:10017000770200087702000877020008770200087B
:100180007702000877020008DFF80CD000F09CF836
:10019000004800477D070008E03101202C4B19681A
:1001A0000868B0E8F04F80F30988BFF36F8F4FF015
:1001B000000080F3118870470000000008480068C4
:1001C000006880F308884FF0000080F3148862B65E
:1001D00061B6BFF34F8FBFF36F8F00DF00BF00BF6B
:1001E00008ED00E0DFF80C00016841F470010160E7
:1001F000704700BF88ED00E0EFF30980BFF36F8F19
:10020000134B1A681EF0100F08BF20ED108A20E96A
:10021000F04F106009B44FF0500080F31188BFF325
:100220004F8FBFF36F8F01F021F94FF0000080F383
:10023000118809BC19680868B0E8F04F1EF0100F6B
:1002400008BFB0EC108A80F30988BFF36F8F704746
:1002500040000020EFF3058070470000064880470B
:1002600006480047FEE7FEE7FEE7FEE7FEE7FEE79B
:10027000FEE7FEE7FEE7FEE7ED050008890100085E
:1002800040EA01039B0703D009E008C9121F08C018
:10029000042AFAD203E011F8013B00F8013B521E98
:1002A000F9D27047D2B201E000F8012B491EFBD20F
:1002B00070470022F6E710B513460A460446194671
:1002C000FFF7F0FF204610BD064C074D06E0E06842
:1002D00040F0010394E8070098471034AC42F6D38D
:1002E000FFF756FF581E0008781E0008FEE700F0D2
:1002F000ABB80000074A904201D2074801E0054828
:100300001038064A8B0001EA020101D5C16070472E
:100310008160704710640240006002407D0F7D0FD5
:1003200070472DE9F041002201274FF0030C07FA36
:1003300002F50B682B40AB422CD1066853000CFA37
:1003400003F4A64306600E79D0F800809E4046EA8A
:10035000080606600E79012E01D0022E12D18668A1
:10036000A64386604E79D0F808809E4046EA08068B
:1003700086604668AE43466045688E799640B6B260
:1003800035434560C568A543C560CC799C40C368CA
:100390001C43C460521C102AC9D3BDE8F0814183BC
:1003A000704701837047FEE71CB50121202000F053
:1003B0001DF84FF40070009001218DF8041000200A
:1003C0008DF806008DF807108DF80500054C69467C
:1003D0002046FFF7A6FF2115009169462046FFF74A
:1003E000A0FF1CBD00140240FEE77047054A00292B
:1003F00003D0116801431160704711688143116097
:100400007047000030380240014908607047000022
:10041000382C014001460020024A12680A4200D0EE
:1004200001207047342C014000F022B8054A002911
:1004300003D0116801431160704711688143116056
:10044000704700003C2C01400748006810F0C05F76
:1004500008D006490120486103484FF0C251583086
:10046000FFF748BF7047000000640240940000207E
:1004700070B54FF480752846FFF7CCFF214C38B19A
:10048000002020702846FFF7BFFF0120206132E0E6
:100490000220FFF7BFFF28B10220FFF7B5FF0220BF
:1004A000207028E00820FFF7B5FF28B10820FFF7EB
:1004B000ABFF042020701EE02020FFF7ABFF28B127
:1004C0002020FFF7A1FF0620207014E01020FFF786
:1004D000A1FF28B11020FFF797FF052020700AE048
:1004E0004FF400752846FFF795FF20B12846FFF727
:1004F0008BFF0720207000214CF23A30FFF796FF67
:10050000207870BD940000200CB50022019200926A
:100510002749086840F4803008604FF4A043086819
:1005200000F4003000900198401C0190009810B930
:1005300001989842F3D10868800302D50120009009
:1005400000E000920098012831D11948403002683B
:1005500042F0805202601748026842F44042026052
:100560001348083002680260026842F400420260E8
:10057000026842F4A0520260021F0F4B13600A6827
:1005800042F080720A600A689201FCD50B4A40F280
:1005900005711160016821F003010160016841F0FB
:1005A000020101600168C1F381010229FAD10CBD89
:1005B000003802400070004008544007003C0240F0
:1005C00010B5502080F31188BFF34F8FBFF36F8FAA
:1005D00001F08EFA18B104494FF0805008600020F5
:1005E00080F3118810BD000004ED00E010B5124842
:1005F000016841F4700101601048016841F0010197
:1006000001600E4A00210832116002680C4B1A404A
:100610000260031D0B4A1A60026822F48022026005
:1006200006480C300160FFF76FFF03494FF0006090
:100630008039086010BD000088ED00E000380240FD
:10064000FFFFF6FE1030002410B5094C40F2255192
:10065000204600F016F8002808D0204600F031F8B7
:10066000C1B22046BDE8104000F02FB810BD000018
:10067000001001400246002012880A4200D00120EA
:10068000704770B5002440F66A12C1F3421301F0BE
:100690001F05012606FA05F2012B0CD0022B0DD006
:1006A000838A1340090A8E40008830400BB100B1A4
:1006B0000124204670BD83891340F3E7038A134069
:1006C000F0E78088C0F308007047C1F3080181801B
:1006D0007047FEE7014A024900F013B859070008C5
:1006E000AC00002002E008C8121F08C1002AFAD19D
:1006F00070477047002001E001C1121F002AFBD1A2
:1007000070472DE9F04116460F460446002503E0E8
:100710003946B047641C6D1C20780028F8D1284663
:10072000BDE8F0811CB506480521CDE90010002385
:100730004FF4007203A1074801F096F91CBD0000B8
:1007400090000020765461736B424C454C6F61649D
:10075000000000007910000870B50446064DE1B2B3
:100760002846FFF7B2FF80212846FFF783FF0028C5
:10077000F9D0204670BD00000010014010B5FFF711
:10078000D1FF00F033FE002010BD00002DE9F04144
:1007900004460F46174EF5683068001D00F098FCBF
:1007A00038B9306890F82C100120884031698143B5
:1007B0003161601C07D137B13168BDE8F041091DD6
:1007C0000D4800F0BEBC2C4430684460AC4206D2F8
:1007D0003168B06B091DBDE8F04100F09ABC31688A
:1007E000706B091D00F095FCB06A844200D2B462BF
:1007F000BDE8F08140000020A42D012070B5044622
:1008000000F0ACFC1D4DA868401CA860286810B121
:10081000686938B10CE02C60A868012808D100F0A4
:1008200081F905E02868E16AC06A884200D82C6036
:10083000686A401C68622064E06A01212A6981407C
:10084000114329610E4900EB800001EB8000211D5E
:1008500000F077FC00F0A2FC686900280CD0286842
:10086000E16AC06A884207D206494FF080500860AA
:10087000BFF34F8FBFF36F8F70BD000040000020AB
:10088000F02C012004ED00E010B500F067FC0E4CE8
:100890002068A0B90D4800F02EFC0C48143000F080
:1008A0002AFC0A48E0601430206100220C210A2052
:1008B00000F086FE206010B105A100F0F3FCBDE859
:1008C000104000F06BBC00007C000020B82D01201F
:1008D000546D72510000000070B50C4D0C4E11E0CB
:1008E00000F03CFCF068C468201D00F0F1FBA86833
:1008F000401EA8606868401E686000F04FFC2046FB
:1009000000F053F868680028EAD170BD400000206C
:10091000902D012030B40B46026C002A0CD0C16827
:100920001144C1608468A14201D30168C160C168FB
:1009300030BC1846FFF7A4BC30BC70472DE9F0412D
:10094000044617460026A56B226C002A10D0C7B1BA
:10095000E068FFF795FCE168206C091AE160226805
:10096000914202D2A168081AE060022F16D017E067
:100970002068A8B9A06801F023F906460020A0600D
:100980000EE06068FFF77CFC216C606808446060E2
:10099000A168884204D32068606001E005B16D1E43
:1009A0006D1CA5633046BDE8F08110B50446206B90
:1009B00000F00AFC2046BDE8104000F005BC000035
:1009C0000749CA681168002904D00021016019B1E3
:1009D000002070470121F9E7D068006870470000E7
:1009E0007C0000204FF496310F48420706D0C01D0E
:1009F00020F007000C49411AC1F596310B4A1060EE
:100A0000002353600144083921F00701183A1160AE
:100A10004B600B600B1A436001604068906050604F
:100A20004FF0004050617047B00000202C000020C3
:100A3000074E4FF08054074DFFF74EFF30680128F6
:100A4000FAD92C60BFF34F8FBFF36F8FF4E700002C
:100A5000F02C012004ED00E070B51D46049C002937
:100A600009D02260E06321640121204600F0C8FD26
:100A700084F84C5070BD2460F4E72DE9F05F8246A5
:100A8000DDE90A590C9C0E4617469B46B900A52283
:100A9000206BFFF707FC206B7F1E00EB870020F028
:100AA0000707780707D0502080F31188BFF34F8FD6
:100AB000BFF36F8FFEE74FF0000866B100202218E9
:100AC000315C82F83410315C11B1401C0A28F6D335
:100AD00084F83D8001E084F83480052D00D304259E
:100AE000E562A564C4F84C80201D00F00FFB04F102
:100AF000180000F00BFB2461C5F10500A0616462E1
:100B0000C4F8508084F854805A465146384600F064
:100B1000A1FA2060B9F1000F01D0C9F80040BDE88A
:100B2000F09F000070B50024124D04EB840005EB2B
:100B3000800000F0E0FA641C052CF6D30D48643008
:100B400000F0D9FA0B48783000F0D5FA09488C301B
:100B500000F0D1FA0748A03000F0CDFA0548B430D3
:100B600000F0C9FA034904486431416314318163D8
:100B700070BD0000F02C01204000002030B513496A
:100B800000E011460A688242FBD34B685C1884423D
:100B900003D140681844486008460D68446823182B
:100BA000AB420DD1094B183B1B689A4206D05268E4
:100BB000224442600A681268026002E0036000E0BA
:100BC0000260814200D0086030BD00002C0000208F
:100BD00070B50024416000610C4D91420AD8D11AD1
:100BE0008269914201D301240EE0011D286900F0C1
:100BF00090FA09E09A4203D2994201D3012403E01A
:100C0000011DE86800F085FA204670BD7C000020D8
:100C100010B5044600F0A2FAA06B20B1002400F049
:100C2000BDFA204610BD0124F9E710B5044600F0D6
:100C300095FAA06BE16B884201D1012400E0002409
:100C400000F0ACFA204610BDF8B505460E46174830
:100C5000C068C068C468201D00F03AFA94F8280003
:100C6000410718D5A0692B46411932462046FFF7A7
:100C7000AFFFA0B100200346014600902A4620465F
:100C800001F0B6F858B9502080F31188BFF34F8FA8
:100C9000BFF36F8FFEE720F0010084F82800216A7F
:100CA00001B02046BDE8F040084700007C0000206D
:100CB00030B585B0394D67E00298002864DB049CAC
:100CC000606910B1201D00F003FA01A800F0B0F82F
:100CD000024602980A2857D2DFE800F00505052DE4
:100CE000334A05052D3394F8280040F0010084F8BC
:100CF00028000398A169034601442046FFF768FFD6
:100D000068B3216A2046884794F8280040073BD5FD
:100D1000002000900398A16900234218194620463C
:100D200001F066F8D8B9502080F31188BFF34F8FD7
:100D3000BFF36F8FFEE714F8280F20F0010020703A
:100D400022E094F8280040F0010084F8280003987D
:100D5000A06128B1811813462046FFF739FF13E040
:100D6000502080F31188BFF34F8FBFF36F8FFEE7E2
:100D700094F82800810703D4204600F025FA03E008
:100D800020F0010084F82800002202A9286800F061
:100D90008FFD002890D105B030BD00007C00002000
:100DA000F8B506460D4600F059FB684600F040F8DD
:100DB0000446009810B100F08DFFF8BD45B9A64279
:100DC00006D800F087FF21463046FFF73DFFF8BD0B
:100DD0000C481DB10169096891B10025311B2A46F3
:100DE000006800F071FA00F075FF0028EFD10649A5
:100DF0004FF080500860BFF34F8FBFF36F8FF8BD87
:100E00000125EBE77C00002004ED00E00748416B82
:100E10000968002905D0416BC968C96849688162C1
:100E200070474FF0FF3181627047000040000020A2
:100E300070B5054600F056FE0446074EB068844281
:100E400004D200F00BF80120286001E000202860A7
:100E5000B460204670BD00007C000020F8B51A4E3A
:100E600020E0C0680568C468201D00F031F9216ADF
:100E70002046884794F82800400713D5A0692844E5
:100E8000A84206D960602461211DF06800F041F994
:100E900008E000200346014600902A46204600F064
:100EA000A7FF40B1F06801680029DAD1F068316924
:100EB000F1603061F8BD502080F31188BFF34F8F8F
:100EC000BFF36F8FFEE700007C00002009484068F8
:100ED000401C07D0502080F31188BFF34F8FBFF321
:100EE0006F8FFEE7502080F31188BFF34F8FBFF361
:100EF0006F8FFEE73400002008B56846FFF760FDFD
:100F00000099FFF74DFFFFF7D3FEF6E72DE9F0411B
:100F1000044600F023F994F9455004F1240609E051
:100F2000606A48B1304600F097FE08B100F020FA40
:100F30006D1E6DB2002DF3DC4FF0FF3684F8456076
:100F400000F02CF900F00AF994F9445004F110076C
:100F500009E0206948B1384600F07EFE08B100F093
:100F600007FA6D1E6DB2002DF3DC84F84460BDE815
:100F7000F04100F013B900002DE9F04105460026CC
:100F800000F06CFA324F386808B9FFF72BFD78692A
:100F900005424DD18DB1083568070ED005F0070028
:100FA000C0F108000544680707D0502080F311887D
:100FB000BFF34F8FBFF36F8FFEE7CDB378688542E5
:100FC00036D8234918310846046801E02146044612
:100FD0006068A84202D220680028F7D138688442AD
:100FE00026D00E680836206808606068411B10290A
:100FF0000ED96019420707D0502080F31188BFF343
:101000004F8FBFF36F8FFEE741606560FFF7B6FD5E
:1010100061687868401A7860BA68904200D2B86017
:1010200078690143616000202060F868401CF86026
:1010300000F050FE700707D0502080F31188BFF3F6
:101040004F8FBFF36F8FFEE73046BDE8F0810000A1
:101050001400002024384FF08073036221F0010156
:10106000C1610449816142606FF0020140F82019BA
:1010700070470000CD0E0008FFF796F90F4C4FF4B3
:10108000007725154FF4FA7639462046FFF787F9A1
:1010900029462046FFF783F9304600F039F93946F2
:1010A0002046FFF77EF929462046FFF77AF93046B9
:1010B00000F02EF902A0FFF70DFBE5E70014024057
:1010C00048656C6C6F20576F726C642E00000000D6
:1010D0000169D0E901329A60D0E901235A604A6877
:1010E000824201D182684A60002202610868401E83
:1010F00008600868704700F1080141604FF0FF3256
:101100008260C160016100210160704700210161BE
:10111000704730B50C68621C02D000F1080202E092
:10112000026904E01A4653681D68A542FAD953685B
:101130004B6099608A60516008610168491C0160D8
:1011400030BD42684A6093688B60936859609160D3
:1011500008610168491C016070470000502080F35D
:101160001188BFF34F8FBFF36F8F0A494868401C47
:10117000486001280CD10848006810F0FF0F07D024
:10118000502080F31188BFF34F8FBFF36F8FFEE7BE
:10119000704700003400002004ED00E00949486871
:1011A000002806D0401E4860002801D180F3118835
:1011B0007047502080F31188BFF34F8FBFF36F8FBC
:1011C000FEE700003400002070B500282AD008385F
:1011D0000446154D60686969084207D1502080F3C4
:1011E0001188BFF34F8FBFF36F8FFEE722683AB1CC
:1011F000502080F31188BFF34F8FBFF36F8FFEE74E
:101200008843606000F02AF9606869680844686093
:101210002046FFF7B3FC2869401C2861BDE87040F8
:1012200000F058BD70BD0000140000204FF0E02019
:1012300000210161816105494FF47A720968B1FBAF
:10124000F2F1491E41610721016170470000002051
:1012500010B5FEF7FFFF114910280ED300F1E02072
:1012600090F8F0030A78904207D2502080F311885A
:10127000BFF34F8FBFF36F8FFEE70948006889689F
:1012800000F4E060884207D9502080F31188BFF352
:101290004F8FBFF36F8FFEE710BD000034000020BA
:1012A0000CED00E010B50022064B53F832401CB1A3
:1012B000521C082AF9D310BD43F8321003EBC201C7
:1012C000486010BDB02C012070B504460D4616468E
:1012D000FFF744FF94F944304FF000005B1C01D14C
:1012E00084F8440094F94510491C01D184F8450064
:1012F000FFF754FFA06B28B93246294604F12400B9
:1013000000F056F82046BDE87040FFF7FFBD000032
:1013100010B502460020002A12D00F48006B38B1E9
:10132000502080F31188BFF34F8FBFF36F8FFEE71C
:1013300000F094F800211046FFF728FA00F0CAFCEC
:10134000002807D105494FF080500860BFF34F8F48
:10135000BFF36F8F10BD00004000002004ED00E0DF
:1013600002490A6A0260C968416070474000002073
:1013700001490120C86170474000002010B50C46AB
:1013800000280AD0094909681831FFF7C2FE204633
:10139000BDE810400121FFF7F9B9502080F3118812
:1013A000BFF34F8FBFF36F8FFEE7000040000020B8
:1013B00070B50D46144600280DD00B490968183148
:1013C000FFF7BFFE0CB14FF0FF3521462846BDE8C0
:1013D0007040FFF7DBB9502080F31188BFF34F8FC7
:1013E000BFF36F8FFEE70000400000201CB51748D8
:1013F0000024CDE900402346822215A1164800F0C2
:1014000033FB012801D100F0CBFC012809D0401C9E
:101410001AD1502080F31188BFF34F8FBFF36F8F25
:10142000FEE7502080F31188BFF34F8FBFF36F8F1B
:1014300006484FF0FF312C38816201214161C460C0
:10144000BDE81C4000F042B81CBD00006C0000204C
:1014500049444C4500000000310A00080248016B75
:10146000491C01637047000040000020154A106BC2
:10147000002802D00120D06170470020D06110699F
:10148000B0FA80F0C0F11F000F4900EB800051F866
:10149000203073B101EB800041684968416000F180
:1014A0000803994201D1496841604068C0681060F2
:1014B0007047502080F31188BFF34F8FBFF36F8FB9
:1014C000FEE7000040000020F02C01201CB537484A
:1014D0000168374A914207D1502080F31188BFF349
:1014E0004F8FBFF36F8FFEE700683149491E884276
:1014F00007D1502080F31188BFF34F8FBFF36F8F58
:10150000FEE72C4908780190FF20087008780090C9
:101510009DF800009DF8002000F0F000904207D0F8
:10152000502080F31188BFF34F8FBFF36F8FFEE71A
:101530009DF80000204C00F0500020700720A060B3
:1015400006E0A068401EA0609DF8000040000090EA
:101550009DF800000006F4D4A068032807D05020AE
:1015600080F31188BFF34F8FBFF36F8FFEE74FF407
:101570004070A060019808700C482030016841F468
:1015800070010160016841F070410160FFF74EFE9B
:1015900000206060FEF726FE0848016841F04041E7
:1015A0000160FEF70BFE00201CBD000000ED00E016
:1015B00071C20F4100E400E03400002034EF00E08D
:1015C000F8B505460E461746002D10D005FB06F06F
:1015D0005030FFF7D1FC04463CB1224650323B4626
:1015E000314628460094FFF737FA2046F8BD5020D0
:1015F00080F31188BFF34F8FBFF36F8FFEE70000BA
:1016000070B504460D46002C25D0FFF7A7FDD4E9A0
:101610000F20216802FB0011A1600021A163216855
:101620006160E06B2268216C401E00FB0121E160DB
:101630004FF0FF3084F8440084F8450004F11000B6
:101640008DB1FFF758FD04F12400FFF754FDFFF7BB
:10165000A5FD012070BD502080F31188BFF34F8F8E
:10166000BFF36F8FFEE721690029F0D000F0F4FA94
:101670000028ECD004494FF080500860BFF34F8F32
:10168000BFF36F8FE3E7000004ED00E02DE9FF47B3
:1016900082B004468A461E460025002C03D0BAF1CB
:1016A000000F08D011E0502080F31188BFF34F8F56
:1016B000BFF36F8FFEE7206C38B1502080F31188A4
:1016C000BFF34F8FBFF36F8FFEE7022E0AD1E06B9F
:1016D000012807D0502080F31188BFF34F8FBFF34C
:1016E0006F8FFEE700F0F0F948B9049838B1502048
:1016F00080F31188BFF34F8FBFF36F8FFEE74FF07A
:1017000000094FF08057DFF8E480FFF727FDA06B5A
:10171000E16B884205D3022E03D0049808B325B3A9
:1017200027E0324651462046FFF708F9616A59B171
:1017300004F1240000F090FA68B1C8F80070BFF31B
:101740004F8FBFF36F8F06E028B1C8F80070BFF36A
:101750004F8FBFF36F8FFFF721FD012006B0BDE86B
:10176000F087FFF71BFD0020F8E76846FFF7F8FD5C
:101770000125FFF713FDFFF771FEFFF7EFFC94F96A
:101780004400401C01D184F8449094F94500401C69
:1017900001D184F84590FFF701FD04A9684600F0E7
:1017A00025F930B12046FFF7B1FB00F093FA002095
:1017B000D4E72046FFF739FA90B104F110000499FC
:1017C000FFF7DCFD2046FFF7A1FB00F083FA0028BD
:1017D0009BD1C8F80070BFF34F8FBFF36F8F94E7B2
:1017E0002046FFF793FB00F075FA8EE704ED00E06A
:1017F0002DE9F0470446894690461F46002C03D049
:10180000B9F1000F08D011E0502080F31188BFF328
:101810004F8FBFF36F8FFEE7206C38B1502080F3FD
:101820001188BFF34F8FBFF36F8FFEE7022F0AD1EE
:10183000E06B012807D0502080F31188BFF34F8F51
:10184000BFF36F8FFEE7FFF703FD5020EFF3118624
:1018500080F31188BFF34F8FBFF36F8FA06BE16BE5
:10186000884206D3022F04D0002086F31188BDE8F9
:10187000F08794F94550A06B3A4649462046FFF759
:101880005DF8681C04D06D1C84F845500120ECE71D
:10189000606A0028FAD004F1240000F0DDF9002885
:1018A000F4D0B8F1000FF1D00120C8F80000EDE746
:1018B0002DE9F74783B004468A460026002C03D062
:1018C000BAF1000F08D011E0502080F31188BFF367
:1018D0004F8FBFF36F8FFEE7206C38B1502080F33D
:1018E0001188BFF34F8FBFF36F8FFEE700F0ECF866
:1018F00048B9059838B1502080F31188BFF34F8F55
:10190000BFF36F8FFEE700274FF08058DFF8D890C5
:10191000FFF724FCA56BC5B151462046FEF7FAFF40
:101920006D1EA563206950B104F1100000F094F918
:1019300028B1C9F80080BFF34F8FBFF36F8FFFF757
:101940002DFC012006B0BDE8F087059808B126B14E
:1019500007E0FFF723FC0020F4E701A8FFF700FDF4
:101960000126FFF71BFCFFF779FDFFF7F7FB94F962
:101970004400401C01D184F8447094F94500401C97
:1019800001D184F84570FFF709FC05A901A800F012
:101990002DF858B12046FFF7B9FA00F09BF9204620
:1019A000FFF736F90028B3D00020CBE72046FFF739
:1019B0002FF990B104F124000599FFF7DFFC2046D0
:1019C000FFF7A4FA00F086F90028A1D1C9F8008039
:1019D000BFF34F8FBFF36F8F9AE72046FFF796FA5A
:1019E00000F078F994E7000004ED00E02DE9F04103
:1019F00005460C46002D11D0C4B1FFF7AFFB194EC0
:101A0000F0686B68C11A2268571C17D02F68366AB5
:101A1000B74215D0834213D801241DE0502080F333
:101A20001188BFF34F8FBFF36F8FFEE7502080F315
:101A30001188BFF34F8FBFF36F8FFEE700240BE0D9
:101A40008A4206D9501A20602846FFF789FC0024F4
:101A500002E0002020600124FFF7A0FB2046BDE843
:101A6000F0810000400000202DE9FF5F8146DDE9A4
:101A70000E788A4616469B46B000FFF77DFA05466B
:101A800028000AD05820FFF777FA04460CB12563E6
:101A900004E02846FFF798FB00E000248CB100200A
:101AA000CDE90240CDE900785B46324651464846D2
:101AB000FEF7E3FF2046FEF7A1FE012004B0BDE8DB
:101AC000F09F4FF0FF30F9E705484169002903D046
:101AD000006B18B10020704701207047022070474A
:101AE000400000200148C06870470000400000200E
:101AF0002DE9F0410026304F386B002805D0B86939
:101B0000401CB8613046BDE8F081FD686D1CFD6089
:101B10009DB9786B006838B1502080F31188BFF30D
:101B20004F8FBFF36F8FFEE7786BB96B7963B86344
:101B3000386A401C3862FFF769F9B86ADFF87C80C0
:101B400085420DD3786B006838B1786BC068C46883
:101B50006068854212D2B86202E04FF0FF30B8628E
:101B60003868C06A00EB800058F82000012800D9CE
:101B70000126F8690028C5D00126C3E7201DFFF71C
:101B8000A7FAA06A18B104F11800FFF7A1FAE06AF9
:101B900001213A6981401143396100EB800008EB73
:101BA0008000211DFFF7CDFAE06A3968C96A8842D2
:101BB000C8D30126C6E7000040000020F02C012019
:101BC00070B504460020002C41D0214D29688C427C
:101BD00007D0502080F31188BFF34F8FBFF36F8F72
:101BE000FEE7E16C71B1491EE164A36CE26A9A42BE
:101BF0002DD000292BD1201DFFF76AFA154A0121AB
:101C000040B112E0502080F31188BFF34F8FBFF333
:101C10006F8FFEE7E06A00EB800352F8233023B9B0
:101C200001FA00F3286998432861A06CE062C0F1D2
:101C30000500A061E06A2B6981401943296100EB2E
:101C4000800002EB8000211DFFF77BFA012070BDB0
:101C500040000020F02C01202DE9F041C068C4684C
:101C6000002C15D004F118000746FFF731FA174D84
:101C70002A6B0126A2B139461548FFF762FAE06ADD
:101C80002968C96A88421ED90120EE61BDE8F08149
:101C9000502080F31188BFF34F8FBFF36F8FFEE7A3
:101CA000201DFFF715FAE06A2A6906FA00F11143D0
:101CB0002961074900EB80008C3901EB8000211D70
:101CC000FFF73FFADBE70020E0E7000040000020DC
:101CD0007C2D01202DE9F041002400272D4D286B9B
:101CE000002807D0FFF73AFA286B401E2863286BBC
:101CF00040B14AE0502080F31188BFF34F8FBFF30B
:101D00006F8FFEE7A868E8B3DFF88C8001261EE03D
:101D1000D8F80C00C46804F11800FFF7D9F9201DA9
:101D2000FFF7D6F9E06A2A6906FA00F11143296142
:101D3000194900EB80008C3901EB8000211DFFF771
:101D400000FAE06A2968C96A884200D3EE61D8F8CF
:101D500000000028DCD10CB1FFF758F8AC6944B1A1
:101D6000FFF7C6FE00B1EE61641E002CF8D1002022
:101D7000A861E86930B10127084938070860BFF356
:101D80004F8F00E001E0BFF36F8FFFF707FA38468F
:101D9000BDE8F081400000207C2D012004ED00E032
:101DA0001CB50024FEF770FD0D48006860B10C48BA
:101DB0000221001DCDE9001000234FF4827209A119
:101DC0000A48FFF751FE04460CB120461CBD5020C6
:101DD00080F31188BFF34F8FBFF36F8FFEE70000D2
:101DE0007C000020546D722053766300F90E0008C9
:101DF000FEB50646089F9C460020002E13D0154DC8
:101E00002C68002C0ED0009101920296062919DA56
:101E1000FFF75AFE02280ED000231A4669462868AA
:101E2000FFF734FCFEBD502080F31188BFF34F8FC5
:101E3000BFF36F8FFEE700233A4669462868FFF735
:101E400025FCFEBD0023624669462046FFF7D0FC14
:101E5000FEBD00007C000020781E0008000000206D
:101E6000B0000000E4060008281F0008B0000020B1
:101E700030310100F4060008007A030A0000000077
:101E8000000000000102030406070809000000002A
:101E90000000000000000000000000000000000042
:101EA0000000000000000000000000000000000032
:101EB000AAAAAAAA0000000000000000000000007A
:101EC0000000000000000000000000000000000012
:101ED0000000000000000000000000000000000002
:101EE00000000000000000000000000000000000F2
:101EF00000000000000000000000000000000000E2
:101F000000000000000000000000000000000000D1
:101F100000000000000000000000000000000000C1
:081F20000000000000000000B9
:040000050800018965
:00000001FF
