:020000040800F2
:10000000C8F201205D020008FB1000086B0F000819
:10001000F9100008110900088B28000800000000F2
:100020000000000000000000000000009D0100082A
:10003000BD0C000800000000F9010008912600082E
:1000400077020008770200087702000877020008AC
:10005000770200087702000877020008770200089C
:10006000770200087702000877020008770200088C
:10007000770200087702000877020008770200087C
:10008000770200087702000877020008770200086C
:10009000770200087702000877020008770200085C
:1000A000770200087702000877020008770200084C
:1000B000770200087702000877020008770200083C
:1000C000770200087702000877020008770200082C
:1000D0007702000819270008770200087702000855
:1000E000770200087702000877020008770200080C
:1000F00077020008770200087702000877020008FC
:1001000077020008D9130008770200087702000878
:1001100077020008770200087702000877020008DB
:10012000770200087702000877020008C10A000879
:1001300077020008770200087702000877020008BB
:1001400077020008770200087702000877020008AB
:10015000770200087702000877020008770200089B
:10016000770200087702000877020008770200088B
:10017000770200087702000877020008770200087B
:100180007702000877020008DFF80CD000F0B8FA18
:100190000048004749320008C8F201202C4B19687A
:1001A0000868B0E8F04F80F30988BFF36F8F4FF015
:1001B000000080F3118870470000000008480068C4
:1001C000006880F308884FF0000080F3148862B65E
:1001D00061B6BFF34F8FBFF36F8F00DF00BF00BF6B
:1001E00008ED00E0DFF80C00016841F470010160E7
:1001F000704700BF88ED00E0EFF30980BFF36F8F19
:10020000134B1A681EF0100F08BF20ED108A20E96A
:10021000F04F106009B44FF0500080F31188BFF325
:100220004F8FBFF36F8F03F067FE4FF0000080F336
:10023000118809BC19680868B0E8F04F1EF0100F6B
:1002400008BFB0EC108A80F30988BFF36F8F704746
:1002500040000020EFF3058070470000064880470B
:1002600006480047FEE7FEE7FEE7FEE7FEE7FEE79B
:10027000FEE7FEE7FEE7FEE7BD260008890100086D
:1002800040EA01039B0703D009E008C9121F08C018
:10029000042AFAD203E011F8013B00F8013B521E98
:1002A000F9D27047D2B201E000F8012B491EFBD20F
:1002B00070470022F6E710B513460A460446194671
:1002C000FFF7F0FF204610BD421E12F8013F002B41
:1002D000FBD111F8013B02F8013B002BF9D170472B
:1002E000CAB2401E10F8011F8A4202D00029F9D17B
:1002F00000207047421C10F8011B0029FBD1801A16
:10030000704730B50B46014600202022012409E049
:1003100021FA02F59D4205D303FA02F5491B04FABE
:1003200002F52844151EA2F10102F1DC30BD2DE9D1
:10033000F05F0546002092469B4688460646814669
:1003400040241BE0284641464746224600F0F9F982
:1003500053465A46C01A914110D3114618462246B8
:1003600000F0E0F92D1A67EB01084F462246012004
:10037000002100F0D7F917EB00094E41201EA4F12F
:100380000104DFDC484631462A464346BDE8F09F7B
:100390002DE9FE4F804681EA0300C00F0C46009015
:1003A00021F0004123F00045B8EB0200A94105D23D
:1003B0004046214690461C460B46024623F000402C
:1003C000104347D0270DC7F30A00C3F30A51029028
:1003D000401A019040286BDAC3F3130040F4801BED
:1003E0000098924620B10023D2EB030A63EB0B0B7B
:1003F00001985946C0F14002504600F093F9064674
:100400000D4650465946019A00F0ABF910EB080032
:100410006141002487EA115284EAE7731A4340D00D
:10042000009A62B3019A012A4FEA075215DC001BB9
:1004300061EB02014FF0004202EA0752CDE90042AF
:10044000001C41F5801132462B4600F0ABF903B099
:10045000BDE8F08F40462146F9E7001B61EB020141
:10046000001C41F5801300185B412018A2F500170D
:1004700047EB030140EAD570B6196D4111E06D08F4
:100480004FEA360645EAC0754FEA0752001B61EB9A
:100490000201001C41F5801149084FEA30000019A3
:1004A000514132462B4603B0BDE8F04F00F06BB926
:1004B0000098012240000023D0EB020263EBE073BE
:1004C000009821464FEAE074B8EB000061EB0401AC
:1004D000E9E783F000435BE781F0004158E72DE94D
:1004E000FE4F81EA030404F0004421F0004100942F
:1004F0004FF0000B23F0004350EA01045ED052EAB3
:1005000003045BD0C3F30A54C1F30A552C44A4F28C
:10051000F3340194A0FB0254C1F3130141F48011A0
:10052000C3F3130343F4801301FB024400FB034EA7
:10053000840A970A44EA815447EA8357A4FB076870
:1005400002958D0A05FB07854FEA932C04FB0C549A
:100550002705029D4FEA065847EA1637B5EB08050E
:100560006EEB070C870E920E47EA811742EA831260
:10057000A7FB0201B6EB0B0164EB00042B0D43EA71
:100580000C335E1844EB1C50DA465146E7FB02017F
:10059000C5F313044FEA0B3343EA14534FEA043212
:1005A000019C43EA0603A4F10C040294009CCDE9EB
:1005B00000B400F0F7F803B0BDE8F08F002001466A
:1005C000F9E72DE9F04D81EA030404F0004B21F036
:1005D000004514464FF0000A23F0004150EA05029E
:1005E00020D054EA01021DD0C5F30A570246C5F3D4
:1005F0001303C1F31300C1F30A5640F4801543F40A
:100600008013A7EB0608101BD64608F2FD3873EBE3
:10061000050002D308F1010801E092185B41B8F12E
:10062000000F03DA00200146BDE8F08D00204FF4F2
:100630008011064684460EE0171B73EB050705D3B1
:10064000121B63EB050306434CEA010C49084FEA11
:10065000300092185B4150EA0107EDD152EA0300E5
:1006600012D082EA040083EA0501084305D0101B7A
:10067000AB4106D20122002306E000224FF00043E6
:1006800002E06FF0010253101AEB06004CEB085128
:1006900010EB0A0041EB0B01BDE8F04D00F073B820
:1006A000C1F30A52C1F3130140F2FF3341F4801148
:1006B0009A4202DA00200146704740F233439A42E0
:1006C000A2F2334202DC524200F03BB800F02AB8FA
:1006D00030B5041E71F1000404DB4FF000444042C9
:1006E00064EB0101141E73F1000405DB1C464FF09E
:1006F0000043524263EB0403994208BF904230BD6D
:10070000064C074D06E0E06840F0010394E807005E
:1007100098471034AC42F6D3FFF73AFD9C490008E5
:10072000BC490008202A04DB203A00FA02F100202C
:1007300070479140C2F1200320FA03F3194390401F
:100740007047202A04DB203A21FA02F0002170478A
:1007500021FA02F3D040C2F1200291400843194629
:100760007047202A06DBCB17203A41FA02F043EA11
:10077000E07306E041FA02F3D040C2F1200291405A
:1007800008431946704710B5141E73F1000408DAC7
:10079000401C41F1000192185B411A4301D120F045
:1007A000010010BD2DE9F04D92469B4611B1B1FA02
:1007B00081F202E0B0FA80F220329046FFF7B2FFF9
:1007C00004460F4640EA0A0041EA0B0153465A46E6
:1007D000084313D0114653EA010019D0C8F1400272
:1007E0005046FFF7AEFF05460E4650465946424674
:1007F000FFF798FF084305D0012004E02046394662
:10080000BDE8F08D0020054346EAE0762C433743EF
:100810000A986305E40AA0EB08000022FD0A44EAF6
:1008200047540A3002D500200146E9E701051019B6
:100830006941DDE9084500196941BDE8F04DA2E7CD
:100840000FB47CB50E4620A409AD042802D00528BB
:1008500002D002E01DA400E01EA403F045FB4FF40B
:1008600000711E48FFF725FD4FF480611C48FFF71B
:1008700020FD08982346CDE900601AA240F2FF113E
:10088000164802F013F82B46144A40F2FD31144882
:1008900002F024F820220D21114803F009F920224A
:1008A0000A210F4803F004F911A10D48FFF70CFDD0
:1008B0000B48FFF71FFD81B2094800F0F1F803F083
:1008C0003FFF7CBC5DF814FB000000005741524E16
:1008D0003A2000004641494C3A200000F4510020E3
:1008E000F455002025735B252E34735D202573009D
:1008F0000D0A000010B507E003780C78A34201D080
:10090000002010BD401C491C521EF5D2012010BD14
:10091000FEE7000070B5374905460024086810F06E
:10092000450FFBD0410702D50324042003E0C00794
:1009300004D00124204600F0E9FC59E000F022FD3B
:10094000A8422BD140F2FF5000F0E0FC002000F064
:100950003BFD294908424BD0002801DA1C2070BD1C
:10096000410001D5092070BD810001D50A2070BD6C
:10097000C10001D50B2070BD010101D50C2070BD57
:10098000410101D50D2070BDC10101D50E2070BD02
:10099000010201D50F2070BD410201D5102070BDAC
:1009A000810201D5112070BDC10201D5122070BD98
:1009B000010301D5132070BD410301D5142070BD82
:1009C000810301D5152070BDC10301D5162070BD6E
:1009D000010401D5172070BD410401D5182070BD58
:1009E000810401D5192070BD000701D51A2070BD02
:1009F000204670BD342C014008E0FFFD10B50B48C7
:100A00000024016811F0450FFBD0480702D50324EC
:100A1000042003E0C80705D00124204600F076FC3E
:100A2000204610BD40F2FF50F8E70000342C014092
:100A300070B50C46194906460025086810F0450FA8
:100A4000FBD0410702D50324042003E0C00705D0F2
:100A50000124204600F05AFC204670BD00F092FCB4
:100A6000B04212D140F2FF5000F050FC002000F0E4
:100A7000ABFC10F4604F03D0810404D5132070BD8B
:100A8000000C208007E0410401D5102070BD000457
:100A900001D50F2070BD284670BD0000342C0140E8
:100AA00070B50D46044603F01FFAEAB2214603482A
:100AB00001F0D2FEBDE8704003F042BE00100140DC
:100AC00001F044BA074A904201D2074801E00548C4
:100AD0001038064A8B0001EA020101D5C160704757
:100AE0008160704710640240006002407D0F7D0FFE
:100AF0000029016802D041F0010101E021F001016B
:100B0000016070472DE9F043016821F001010160A7
:100B10000021016041608160C1600161212141616A
:100B20003C493C4A3D251039904202D18D60BDE8D8
:100B3000F083384A4FF474661832904201D18E60C7
:100B4000F5E7344A4FF474173032904201D18F6088
:100B5000EDE7304A4FF0746C4832904202D1C1F850
:100B600008C0E4E72B4B2C4A6033984201D1CA609D
:100B7000DDE7284C294B7834A04201D1CB60D6E781
:100B8000DFF89080264C08F19008404501D1CC60F8
:100B9000CDE7DFF880804FF03D5908F1A8084045C7
:100BA00002D1C1F80C90C2E71E49DFF878800839FD
:100BB000404501D10D60BAE71A4D1835A84201D160
:100BC0000E60B4E7174D3035A84201D10F60AEE793
:100BD000144D4835A84202D1C1F800C0A7E7114D15
:100BE00010496035091FA84201D10A609FE70D4AEC
:100BF0007832904201D10B6099E70A4A90329042D4
:100C000001D10C6093E7074AA83290428FD1C1F816
:100C100000908CE7106002403D000020400F002053
:100C200000003D20106402400029016802D041F01C
:100C3000200101E021F02001016070470B0607D57B
:100C4000436912B143F0800301E023F08003436164
:100C5000802908D0002A026801F01E0101D00A4351
:100C600000E08A430260704730B50368124ACC68DE
:100C700013400A682243D1E905452C432243CC693D
:100C800022430C6A22434C6A22438C6A22434C6BF7
:100C900022438C6B22431A430260426922F007030D
:100CA000D1E90B2422431A4342610A6942604A682F
:100CB00082608968C16030BD3F801CF070470000D1
:100CC00070B5012186B0084600F054FA01211020C9
:100CD00000F05CFA1E4E07220A21304600F031F97E
:100CE00007220921304600F02CF900248DF8064037
:100CF00001208DF80700022540028DF80450009075
:100D00008DF805506946304600F0CAF86802009038
:100D10008DF804506946304600F0C2F84FF4E130D7
:100D2000ADF80C400290ADF80E40ADF81040ADF8B3
:100D300014400C20074CADF8120002A9204601F027
:100D40002DFD0121204601F0F9FC06B070BD000028
:100D5000000002400010014010B5002303E09C1881
:100D6000C4545B1C9BB28B42F9D310BD2DE9FC5FD0
:100D70000025484C00954FF4806801954027C4F841
:100D80001080C4E902750E464FF0080B1021C4E92B
:100D900000B1A946204600F049FB1020FFF7BAFD3C
:100DA00000284CD13C48BA464F46008900042060D8
:100DB0003720C4E9010AC4E90398204600F036FB55
:100DC0003720FFF7A7FD002839D1411E04F1140098
:100DD000C0E9001B302181600221C0E90317012115
:100DE000416100F0ABFA3320C4F808A0C4E90070F8
:100DF000C4E90378204600F019FB3320FFF78AFD91
:100E000004001CD1254F4FF4001AE94640F22A682D
:100E1000386810EA080F0AD1504600F0B9FA0028E5
:100E2000F6D000F0FDFA49F825006D1CF0E7082027
:100E300000F0AEFA28B1082000F068FA0420BDE8FE
:100E4000FC9F022000F0A4FA20B1022000F05EFA1C
:100E50000220F4E7202000F09BFA20B1202000F0CF
:100E600055FA0620EBE74FF40075284600F090FA9B
:100E700020B1284600F04AFA0720E0E740F2FF5090
:100E800000F044FA009800BA7060019800BA30602F
:100E90002046D4E7985A0020A4000020342C0140BA
:100EA000F0B50023012403270D6804FA03F215406E
:100EB000954242D1D0F800C05E0007FA06F52CEA50
:100EC000050CC0F800C091F804C0D0F800E00CFA9E
:100ED00006FC4CEA0E0CC0F800C091F804C0BCF14E
:100EE000010F02D0BCF1020F1FD1D0F808C02CEACC
:100EF000050CC0F808C091F805C0D0F808E00CFA5D
:100F000006FC4CEA0E0CC0F808C0D0F804C02CEA6D
:100F1000020CC0F804C0426891F806C00CFA03FC49
:100F20001FFA8CFC42EA0C024260C268AA43C2600B
:100F3000CA79C568B2402A43C2605B1C102BB3D388
:100F4000F0BD4B07DB0E9A40C90810B500EB8100DD
:100F5000016A0F249C40A1430162016A11430162AE
:100F600010BD4183704701837047FEE77CB504469E
:100F700000254D480095019500894C490004086002
:100F80000D2048604020C1E90205000108610846C3
:100F900000F04CFA46480168019111F0450FFAD073
:100FA0000198400702D50324042004E00198C007FB
:100FB00005D00124204600F0A9F920467CBD00F0B0
:100FC000E1F901900D2838D140F2FF5000F09EF970
:100FD000002000F0F9F90090C0F34320207035495B
:100FE000009808425DD00098002801DA1C207CBDE2
:100FF000400001D509207CBD0098800001D50A2061
:101000007CBD0098C00001D50B207CBD009800017C
:1010100001D50C207CBD0098400101D50D207CBD80
:101020000098C00101D50E207CBD0098000201D5BA
:101030000F207CBD0098400201D510207CBD009897
:10104000800201D511207CBD0098C00201D512207C
:101050007CBD0098000301D513207CBD009840039F
:1010600001D514207CBD0098800301D515207CBDDE
:101070000098C00301D516207CBD0098000401D55E
:1010800017207CBD0098400401D518207CBD009835
:10109000800401D519207CBD0098000701D51A20D5
:1010A0007CBD28467CBD0000A4000020985A00208A
:1010B000342C014008E0FFFD1CB50121202000F088
:1010C00059F84FF40070009001208DF804000021C1
:1010D0008DF806108DF80700064C8DF8051069464E
:1010E0002046FFF7DDFE2015009069462046FFF7F9
:1010F000D7FE1CBD00140240FEE7704730B50F223A
:10110000C47801780123FCB1144C246801F1E0217A
:1011100004F4E064C4F5E064C4F30724C4F10405F6
:10112000E2404478AC408578154025432A0181F897
:101130000024007800F01F018B404009800000F17E
:10114000E020C0F8003130BD01F01F0083404809A5
:10115000800000F1E020C0F8803130BD0CED00E0EF
:101160000249084302490860704700000000FA0580
:101170000CED00E0044A0029116801D0014300E0B1
:10118000814311607047000030380240044A002952
:10119000116801D0014300E08143116070470000F5
:1011A00044380240044A0029116801D0014300E09C
:1011B00081431160704700002438024070B5204A16
:1011C0001168204C11F00C0104D06610042903D0E2
:1011D000082903D004601BE0066019E01849091FC4
:1011E0000B68C3F380550B6803F03F0315B1B6FBE2
:1011F000F3F301E0B4FBF3F30C680968C4F388145B
:101200006343C1F30141491C4900B3FBF1F10160A3
:1012100011680F2303EA11110B4B5C5C0168E1407C
:1012200041601468072505EA94241C5D21FA04F442
:101230008460126805EA52329A5CD140C16070BD88
:10124000083802400024F400900000202DE9FC47FB
:101250000025804600952846019500F0B5F88001EC
:1012600002D50E20BDE8FC87264F6946388980B23A
:10127000FFF77CFD0028F5D13720234C402601994B
:101280004FF0060A4FF48069B8F1010F1FD0C9036F
:1012900035D53989C4F810900904C4E90010C4E9AF
:1012A0000265204600F0C2F83720FFF733FB002824
:1012B000D8D1C4E9005AC4F8109000BFC4E902654F
:1012C000114800F0B3F80620FFF724FBCAE74903F2
:1012D00015D53989C4F810900904C4E90010C4E98F
:1012E0000265094800F0A2F83720FFF713FB002839
:1012F000B8D10220C4F81090C4E9000ADEE7252026
:10130000B0E70000A4000020985A002001490860BE
:1013100070470000382C0140014908607047000008
:10132000382C01400149C1F8A000704700802542D7
:1013300001490860704700008C85254210B50A4AB3
:1013400001681160121D41681160121D116821F0C1
:10135000F703D0E902142143D0E9044004432143B8
:101360001943116010BD0000242C014010B501216B
:10137000CC022046FFF716FF2046BDE810400021B2
:10138000FFF710BF01480068C0B27047102C014041
:10139000034A0146002012680A4200D0012070472B
:1013A000342C0140034A0146002012680A4200D052
:1013B00001207047342C01400248006800F003000F
:1013C00070470000002C014008B502490844009015
:1013D000006808BD142C014000F0CCBD044A00296F
:1013E000116801D0014300E08143116070470000A3
:1013F0003C2C014030B5094B1A6847F6FF618A431F
:10140000017D8468C568214344682C4321430468F6
:101410000069214301431143196030BD042C014090
:101420000148006870470000802C014010B5084A50
:1014300001681160121D1168CB0AD0E90114214323
:10144000D0E903400443DB0221431943116010BD7E
:10145000082C01400149086070470000002C014041
:101460002DE9F0410146194800264068032813D0B1
:1014700018B1012801D0022825D1B1F5805F0BD029
:101480004FF400670025124CB9420ED10120FFF73E
:10149000DDFE060003D016E02720BDE8F0812575AB
:1014A00025606560C4E9025709E00020FFF7CEFE21
:1014B000060008D1257525606560A560E5600448D3
:1014C0002561FFF797FF3046E7E70000A400002002
:1014D000805A00202DE9FF5F82B0804600274048F7
:1014E00001978DF8007040681646000D8B463D460A
:1014F000800603D4252006B0BDE8F09F3948006877
:101500003949C0B2801CB1FBF0F001900020FFF718
:101510005BFF800101D50E20EDE73448304C4FF0E1
:10152000400A4068A0344FF48069022805D060B1B9
:1015300001280AD0022808D028E005984FEA582848
:10154000760A48EACB5846EAC0562020C4E9008013
:10155000C4F810902248C4E902A5D046A030FFF795
:1015600065FF2020FFF7D6F90028C4D12120C4F858
:101570001090C4E900601A48C4E90285A030FFF762
:1015800055FF2120FFF7C6F90028B4D120462621B7
:10159000C0E90051C4E902A51148C4F81090A03078
:1015A000FFF744FF2620FFF7B5F90028A3D100E09C
:1015B0007F1C01988742FBD36846FFF7D7FC4FF0AA
:1015C000FF3404E06846FFF7D1FC641E93D0002886
:1015D00091D19DF800100729F4D00629F2D08AE7AE
:1015E000F8590020042C0140C0D40100A4000020C0
:1015F0001CB51E4CE07858BB00234FF448421846F7
:101600001946FFF767FFE07010BB64214FF40070CC
:101610000022CDE900011346154800F04DFDE070B1
:1016200000F092FE84F8030000F086F90028FBD158
:10163000E07868B90E494CF2FF700A78FF2A02D0B0
:101640000AB1002003E0491C401EF6D201202070A0
:101650002078012807D007A001F018F90A48BDE852
:101660001C4001F013B909A0F9E70000BC000020FC
:10167000C42601205344BFA8B2C1B3FDB2E2CAD40C
:10168000CAA7B0DCA3A10A00F84800085344BFA8C9
:10169000B2C1B3FDB2E2CAD4B3C9B9A6A3A10A00CC
:1016A0002DE9F0439849DFF86492D1F804C080F83E
:1016B00056C00989A0F85410D9F800100A0E9409F0
:1016C0000470C2F38304447002F0030282700A0CB7
:1016D000C2700A0A02714171D9F80470390E090109
:1016E000C180C288C7F3074142EA1112C28001F0EB
:1016F0000F010172C7F30722D1094172C2F38011B1
:101700008172C2F34011C172C2F300110173002152
:1017100041734B469D6801232E0EC5F30744C5F364
:101720000728BCF1000F06D0BCF1010F03D0BCF1BB
:10173000020F3BD052E09207120D0261FAB2076924
:1017400047EA82020261026942EA96120261C6F326
:10175000C202027506F00702427562098275C4F37F
:101760008202C275A207520F0276047E424644EA04
:10177000D21404760469077EBF1C03FA07F6641CC2
:10178000A4FB06784FEAE67C01FB068604FB0C66A8
:1017900090F808C003FA0CF4A7FB04C8046506FB24
:1017A000048407FB0144C0E912C417E0BA06920A98
:1017B0000261026942EA0622026102692243026171
:1017C00004694246641C41F10006F60446EA5436B8
:1017D000E404C0E912464FF400740465C2F38014B7
:1017E00044769206520E00F81A2FEAB2057845EABE
:1017F000D21500F8015B02F07F0200F8012BD9F846
:101800000C40220ED50900F8015BC2F3411500F827
:10181000015BC2F3820500F8015B9207120F0270B0
:101820000578C4F3074245EA921500F8015BC2F35C
:1018300040150570417002F001028270C4F3072266
:10184000D509C570C2F380150571C2F34015457105
:10185000C2F300158571C2F38105C57102F0030260
:101860000272C4F3460242728372284C103422681A
:10187000150E0573150C2D02C581C689C2F3072507
:101880002E43C6811206026162680669150E46EA99
:10189000054505610669C2F3074546EA0525056168
:1018A0000669C2F307252E4306610275A268150E6C
:1018B0004575150C2D0685618669C2F3072546EA34
:1018C000054585618569D2B245EA02228261E268F6
:1018D000856945EA12658561057FC2F3074445EADB
:1018E000141505772407240DC483C58BC2F3072480
:1018F0002543C583C2F3460280F8202080F82130BA
:101900000846BDE8F0830000A4000020F85900203C
:101910001CB50020009001208DF804009DF8040003
:10192000012803D1684600F041FC08B1FF201CBD2E
:101930000098C0F343201CBD10B5FFF7E9FF042851
:1019400003D0FF2803D0012010BD002010BD0220CD
:1019500010BD00007CB500248DF800404FF4C0603D
:10196000FFF7FEFB31208DF8040001258DF80550AE
:101970008DF806408DF8075001A8FFF7BFFB3B200C
:101980008DF804008DF8055001A8FFF7B7FB00F0B3
:1019900043F9FFF7EBFC00F0E7F98DF800009DF844
:1019A000000058BB00F030F88DF800009DF80000F2
:1019B00020BB14480475046044608460C460046102
:1019C000FFF718FD0F485838FFF76AFE8DF8000042
:1019D0009DF8000048B90B4800215838B0F8540071
:1019E000000400F0CDFB8DF800009DF8000028B940
:1019F0004FF40060FFF734FD8DF800009DF8000003
:101A00007CBD0000805A00202DE9F84F0120002500
:101A1000ADF80000FFF7D0FCA8B3DFF8E090D9F8EC
:101A20000400042868D0364C4FF0C00A002602207B
:101A3000C4F808A0C4E900604FF48068C4E90368F2
:101A40002046FFF7F3FCFEF7D9FF05001DD1FFF795
:101A5000BBFCA4F1900738600420FFF7B5FC786068
:101A60000820FFF7B1FCB8600C20FFF7ADFCF86070
:101A7000D9F804004F4650B1012808D0062806D0F6
:101A8000022804D013E0FFE72520BDE8F88F0320EB
:101A9000E4E80260402084E841011948083CFFF76F
:101AA000C5FC69460320FEF7C3FF0500EDD1786849
:101AB000042821D0BDF80000B8600004206009208F
:101AC000C4E9010AC4E903680D48FFF7AFFCFEF75B
:101AD00095FF0500D9D1FFF777FC094CA03C2060A9
:101AE0000420FFF771FC60600820FFF76DFCA06028
:101AF0000C20FFF769FCE0602846C6E7A400002040
:101B0000985A002030B51F4D04468FB04FF0FA515F
:101B10002846FEF7D7FF00212846FEF7E9FF2846B2
:101B2000FEF7F0FF4FF0006000901748CDE9010488
:101B300000200121CDE903018902CDE905018900D9
:101B400007918900CDE908104FF440300A90042035
:101B50000B9003200C9048020D9080100E90694667
:101B60002846FFF781F8012210212846FFF766F882
:101B700020212846FFF758F801212846FEF7B8FF34
:101B80000FB030BD58640240802C014030B5204D6C
:101B900004468FB04FF0FA512846FEF793FF00211C
:101BA0002846FEF7A5FF2846FEF7ACFF4FF0006081
:101BB00000901848CDE901044020039001200490D2
:101BC00000202915CDE90501890007918900CDE99B
:101BD00008104FF440300A9004200B9003200C9022
:101BE00048020D9080100E9069462846FFF73CF899
:101BF000012210212846FFF721F820212846FFF76F
:101C000013F801212846FEF773FF0FB030BD000026
:101C100058640240802C01407CB501210C20FFF764
:101C2000A9FA244D0C2208212846FFF78AF90C2234
:101C300009212846FFF785F90C220A212846FFF7DB
:101C400080F90C220B212846FFF77BF90C22114664
:101C50002846FFF776F9184E0C2202213046FFF78E
:101C600070F902218DF805104FF470608DF80410A2
:101C7000009000248DF8064001208DF80700694689
:101C80002846FFF70DF90420009069463046FFF71B
:101C900007F9A81400908DF8074069462846FFF719
:101CA000FFF80121C802FFF771FA01218805FFF74B
:101CB00061FA7CBD00080240000C02402DE9FC41A5
:101CC0004FF44845002229461D48FFF745F81D4CB2
:101CD000E07858BB64264FF40077CDE90076002207
:101CE0001346174800F0F2FBE07000F061FBE07073
:101CF000FFF722FE0028FBD1E078B8B9CDE90076E5
:101D000000221346104800F0D7F9E07000F01CFBE9
:101D100084F80300FFF710FE0028FBD1E07828B913
:101D20002A4609490648FEF7E5FDA070A07801287B
:101D300004D00648BDE8FC4100F0A8BD04A0F9E7C6
:101D4000C45E0020BC000020C426012058490008C1
:101D50004D756C746920626C6F636B20B2E2CAD4FB
:101D6000B3C9B9A6A3A100002DE9FC5F00258DF839
:101D7000005072487621A94601750560456085606E
:101D8000C560A8460561FFF735FB0320FFF762FB3E
:101D90000120FFF7C7FA694C4FF4806B18342046D6
:101DA00025606560A560C4E9035BFFF73FFB4FF466
:101DB000803A0027564601E0761E10D08020FFF7BB
:101DC000E7FA0028F8D056B140F2FF50FFF79EFA2C
:101DD0008DF800709DF80000002854D101E0032721
:101DE000F6E74FF4D570206008204027C4E90107CA
:101DF0005248C4E9035B5E461830FFF717FB504BAF
:101E0000002051461A684FF0370B02E04C4A126826
:101E1000491E12F0450F06D009B1510706D54FF003
:101E2000030A042007E00029F0D1F8E7510605D5A0
:101E30004FF0000A4020FFF769FA50468DF8000085
:101E40009DF8000000B3A760C4E9005B3B48C4E90B
:101E500003561830FFF7EAFA3720FEF75BFD8DF8DE
:101E60000000A760C4E9005B3448C4E90356DA46C1
:101E70001830FFF7DBFA3720FEF74CFD8DF8000035
:101E80009DF8000088B355E02E4801214FF08048AE
:101E90004160E6E7A760C4E9005A2848C4E9035650
:101EA0001830FFF7C3FA3720FEF734FD8DF8000035
:101EB0009DF8000078BB244948EA010020602920F1
:101EC000C4E901071D48C4E903561830FFF7AEFA0C
:101ED00000201B490190086810F0450FFBD0400717
:101EE00004D503200190042002E011E040F2FF50ED
:101EF000FFF70CFA01988DF800009DF8000050B92A
:101F00000020FFF761FAC10F09F1010904D005E0D3
:101F10004FF6FF7BBEE70DE0D945BBD3D94503D3D0
:101F20001B208DF8000005E010F0804F02D005481E
:101F3000022141609DF80000BDE8FC9F805A00200E
:101F4000342C0140A40000200000108007480068E5
:101F500010F0C05F08D006490120486103484FF0E7
:101F6000C2515830FEF7AEBD704700000064024019
:101F7000A400002070B54FF480752846FFF712FAD0
:101F80001F4C38B1002020702846FFF7C5F901200A
:101F900020612EE00220FFF705FA20B10220FFF7B2
:101FA000BBF9022024E00820FFF7FCF920B108204B
:101FB000FFF7B2F904201BE02020FFF7F3F920B16E
:101FC0002020FFF7A9F9062012E01020FFF7EAF918
:101FD00020B11020FFF7A0F9052009E04FF40075AB
:101FE0002846FFF7DFF920B12846FFF795F90720CB
:101FF000207000214CF23A30FFF7F0F9207870BDE4
:10200000A40000202DE9F047284C0025089F164623
:102010009846814625702561E560254805600121C7
:1020200040F22A30FFF7DAF90120FFF781F939464B
:102030004846FFF767FD6068022803D10702760A69
:1020400046EAC8561B4C4FF040091020C4F80890CF
:10205000C4E900704FF48068C4E903582046FFF7D4
:10206000E5F91020FEF756FC00281CD1411E04F1B2
:102070001400C0E90017902181600221C0E9031516
:1020800001214161FFF75AF91120C4F80890C4E911
:102090000060C4E903582046FFF7C8F9BDE8F047DF
:1020A0001120FEF737BCBDE8F0870000A400002037
:1020B0002C2C0140985A00202DE9F05F2D4CDDE9D1
:1020C0000A764FF0000815469946824684F800804B
:1020D000C4F810804FF0010BC4F80CB02649C1F8C9
:1020E0000080594640F22A30FFF778F906FB07F1E5
:1020F0005046FFF707FD0120FFF71AF96068022834
:1021000003D107026D0A45EAC9551C4C4FF0400A3D
:102110001020C4F808A0C4E900704FF4806920467C
:10212000C4E90389FFF782F91020FEF7F3FB0028CA
:102130001ED1411E04F114007E43E0E802169021F6
:1021400002C00221464680E8420804F11400FFF76D
:10215000F5F81220C4F808A0C4E90050C4E90369E6
:102160002046FFF763F9BDE8F05F1220FEF7D2BB0F
:10217000BDE8F09FA40000202C2C0140985A0020BC
:10218000094910B508600720486040208860002099
:10219000C8604FF4806008610846FFF747F9BDE862
:1021A00010400720FEF7B6BB985A002070B5040017
:1021B0001AD00E480E490089000408600D204860BE
:1021C000402088600020C8604FF4806008610846A5
:1021D000FFF72CF90D20FEF79DFB050003D1FFF75B
:1021E000F3F82060284670BD262070BDA4000020B2
:1021F000985A002038B54FF4007543F20F22294653
:102200001A48FEF7A9FD1A4CE07828BB00221346B5
:102210001648009500F000F9E07000F0C9F8E07091
:10222000FFF78AFB0028FBD1E078A8B9002213460B
:1022300010480095FFF7E6FEE07000F085F8E070CA
:10224000FFF77AFB0028FBD1E07828B92A46094934
:102250000648FEF74FFB60706078012804D00648FE
:10226000BDE8384000F012BB04A0F9E7C45A0020D2
:10227000BC000020C45C0020B048000853696E67B1
:102280006C6520626C6F636B20B2E2CAD4B3C9B9CB
:10229000A6A3A10A00000000084810B500210C22E6
:1022A000C0E900124022C0E9022111010161FFF7DB
:1022B000BDF8BDE810400C20FEF72CBB985A00205A
:1022C00010B5FFF747FB0A4CE07008B109A000E029
:1022D00018A000F0DBFAE078002807D1FFF788F9B2
:1022E000FFF788FFBDE81040FFF7E8BC10BD000015
:1022F000BC0000205344BFA8B3F5CABCBBAFCAA7FB
:10230000B0DCA3ACC7EBC8B7B1A35344BFA8D2D1CC
:10231000D5FDC8B7BDD3C8EBBFAAB7A2B0E5A3AC83
:10232000BBF2BBBBD2BBD5C55344BFA8B2E2CAD433
:10233000A3A10A005344BFA8B3F5CABCBBAFB3C93D
:10234000B9A6A3A10A0000002DE9F0410026751EE0
:102350002846154C00E0401E616929B9216919B968
:10236000217809B90028F6D1002767610F4800E0FD
:102370006D1E0168890401D5002DF9D1E06801289E
:1023800003D1FFF789FF0646E760354300D10426F5
:1023900040F2FF50FEF7BAFF207810B12078BDE878
:1023A000F0813046FBE70000A4000020342C0140FF
:1023B0002DE9F0410026751E2846154C00E0401E10
:1023C000616929B9216919B9217809B90028F6D1BB
:1023D000002767610F4800E06D1E0168C90401D540
:1023E000002DF9D1E068012803D1FFF755FF06461B
:1023F000E760354300D1042640F2FF50FEF786FF28
:10240000207810B12078BDE8F0813046FBE700006D
:10241000A4000020342C01402DE9F047284D002471
:10242000089F1646984681462C702C61EC60254822
:102430000460012140F22A30FEF7D0FF39464846B9
:10244000FFF7A4FB0120FEF773FF6868022803D1A1
:102450000702760A46EAC8561B4D4FF04009102085
:10246000C5F80890C5E900704FF48068C5E90348D5
:102470002846FEF7DBFF1020FEF74CFA00281DD19E
:102480001820C5F80890C5E90060C5E9034828464A
:10249000FEF7CCFF1820FEF73DFA00280ED105F11B
:1024A0001401401EC1E900079020C1E90204012087
:1024B000C1E904400846FEF741FF2046BDE8F08729
:1024C000A40000202C2C0140985A00202DE9F05F38
:1024D0003F4CDDE90A764FF00008154699468246E2
:1024E00084F80080C4F810800121E1603949C1F806
:1024F0000080012140F21A30FEF770FF06FB07F161
:102500005046FFF743FB0120FEF712FF60680228E8
:1025100003D107026D0A45EAC9552F4C10204FF030
:10252000400980C4C2464FF4806B84E8010E201F2E
:10253000241FFEF77BFF1020FEF7ECF9002844D1A2
:102540002348C846211D0089D94600042060372051
:10255000C4F810B081E801052046FEF767FF372078
:10256000FEF7D8F9002830D1C4F808801720C4E954
:102570000060C4E903A9C346D0462046FEF756FFD3
:102580001720FEF7C7F900281FD11920C4F808B09A
:10259000C4E900504546C4E903892046FEF746FFDA
:1025A0001920FEF7B7F900280FD104F11401401EDD
:1025B0007E43C1E900069020C1E902050120C1E97E
:1025C00004500846FEF7BAFE2846BDE8F09F00001A
:1025D000A40000202C2C0140985A00200CB50020AB
:1025E0002749019000900A6842F480320A604FF453
:1025F000A0430A6802F400320092019A521C019230
:10260000009A12B9019A9A42F3D10A68920334D51A
:10261000012000901A484030026842F08052026067
:102620001848026842F440420260154808300268C7
:102630000260026842F400420260026842F4A05262
:102640000260031F104A1A600A6842F080720A6032
:102650000A689201FCD50D4A40F2057111600168CB
:1026600021F003010160016841F00201016001688D
:10267000C1F381010229FAD10CBD00900CBD00000C
:10268000003802400070004008544007003C0240FF
:1026900010B5502080F31188BFF34F8FBFF36F8FB9
:1026A00001F062FF18B104494FF08050086000202B
:1026B00080F3118810BD000004ED00E0124810B551
:1026C000016841F4700101601048016841F00101A6
:1026D00001600E4A00210832116002680C4B1A405A
:1026E0000260031D0B4A1A60026822F48022026015
:1026F00006480C300160FFF771FF03494FF000609E
:102700008039086010BD000088ED00E0003802400C
:10271000FFFFF6FE1030002410B5074C40F22551A3
:10272000204600F01CF8002804D02046BDE81040E8
:1027300000F08AB810BD0000001001400029818916
:1027400002D041F4005101E021F400518181704731
:102750000246002012880A4200D00120704730B59E
:1027600001F01F0201240025C1F3421304FA02F212
:10277000012B0FD0022B0FD0838A4FEA1121008842
:10278000134204FA01F400EA040001D000B101256B
:10279000284630BD8389F0E7038AEEE77FB504461B
:1027A000008A0D4620F44051E88808432082A08921
:1027B00041F20C618843A9882A8911436A8902433E
:1027C0001143A181A08A20F44071A8890843A08206
:1027D0006846FEF7F3FC1A48844202D01948844246
:1027E00001D1039800E00298A189090400EBC0011F
:1027F00001EB0010296801D5490000E08900B0FB19
:10280000F1F26420B2FBF0F109010B096FF0180539
:102810006B4302EB8302A3891D044FF0320306D5FC
:1028200003EBC202B2FBF0F000F0070005E003EB9F
:102830000212B2FBF0F000F00F00084320817FBDD0
:1028400000100140001401408088C0F30800704768
:10285000C1F30801818070472DE9F04116460D460D
:10286000074600240DE000BF15F8011B3846FFF7AE
:10287000EFFF80213846FFF76BFF0028F9D0641C7A
:10288000E4B2B442F0D3BDE8F081FEE70FB4054BEB
:1028900010B503A9044A029800F008F910BC5DF8CD
:1028A00014FB000025320008C00000200FB41CB546
:1028B0000246002007AC00290BD0491ECDE90021BB
:1028C000054B6A462146069800F0F0F8009A002170
:1028D00011701CBC5DF814FBDB3100087CB50446AC
:1028E00000201D46164600290BD0491ECDE90041A7
:1028F000044B6A462946304600F0D8F8009A002179
:1029000011707CBDDB31000802E008C8121F08C14D
:10291000002AFAD170477047002001E001C1121F60
:10292000002AFBD1704700002DE9FF5F82B0002133
:10293000DDE90430020DDDF840B0034318D044F661
:102940001050A2F2FF3242431514119801281FD0F3
:10295000A5EB0B00401C5FEA000A4FF000064E4F4B
:10296000DFF83891B046504615D5CAF1000413E09F
:10297000119801244AA3012801D16FEA0B010298A2
:10298000119AC0E90031C0E9024206B0BDE8F09FEB
:10299000CBF10000DFE704460021404A491842EB32
:1029A0000450CDE9001012E0E00707D032463B4664
:1029B00040464946FDF793FD8046894632463B46F0
:1029C00010461946FDF78BFD06460F466410002C95
:1029D000EAD1DDE90401DDE90023BAF1000F06DAEE
:1029E000FDF77DFD42464B46FDF779FD05E0FDF71D
:1029F000E8FD42464B46FDF7E4FD04460E46002244
:102A0000284BFDF765FE03D84FF0FF30014607E085
:102A10000022254B20463146FDF7BAFCFDF740FE6B
:102A2000102409E0002C0ADB0A220023FDF77FFCBA
:102A3000039B30321A55641E50EA0102F2D1641C25
:102A4000039AC4F111031444119A012A03D00122FC
:102A500008430DD10AE0084304D000204FF0110BC9
:102A6000119072E7A3EB0B056D1E0DE05B4504DDD5
:102A70004FF0000205F1010504E003DA4FF0000217
:102A8000A5F10105002AECD002981199C0E90231A4
:102A9000C0E9004579E70000000014400000F03F65
:102AA000300000000000F0430000E03F2DE9FF4F40
:102AB00095B09B468946064600250FE2252877D12A
:102AC00000242746F84A0121059400E0044316F843
:102AD000013F203B01FA03F01042F7D130782A2859
:102AE00011D06FF02F033078A0F13002092A16D8E8
:102AF000059A44F0020402EB820203EB4202104406
:102B0000761C0590EFE759F8042B0592002A03DAAA
:102B1000504244F40054059044F00204761C30788E
:102B20002E2816D116F8010F44F004042A280DD0DF
:102B30006FF02F023078A0F13003092B09D807EB92
:102B4000870302EB4303C718761CF3E759F8047BAD
:102B5000761C30786C280FD006DC4C2817D06828FB
:102B60000DD06A2814D104E0742810D07A280FD12F
:102B70000DE044F400140AE044F4801401E044F44D
:102B800040147278824202D104F58014761C761CBF
:102B9000307866280BD013DC582877D009DC002861
:102BA00075D04528F6D04628F4D047281AD19DE1A3
:102BB00018E0632835D0642879D0652812D195E1D2
:102BC000702873D008DC6728F1D069286FD06E2890
:102BD0000DD06F2806D1B5E073282CD0752875D09C
:102BE000782874D05A46179990476D1C75E1C4F344
:102BF0000250022809D003280DD0D9F8001004286B
:102C00000DD00D6009F1040967E1D9F80010EA1749
:102C1000C1E90052F6E7D9F800100D80F2E70D7017
:102C2000F0E719F8041B8DF8001000208DF8010062
:102C3000EA46012003E059F804AB4FF0FF3061078A
:102C40004FF0000102D40DE008F101018846B942BD
:102C50000FDA8045F8DB1AF808100029F4D108E0F3
:102C600008F1010188468142FADB1AF808100029B0
:102C7000F6D105985B46A0EB080721463846179A1F
:102C800000F094FA284400EB080507E04DE029E144
:102C90000DE01AF8010B5A4617999047B8F1010850
:102CA000F7D25B4621463846179A13E142E00A22E2
:102CB0000092C4F302524FF0000A022A08D059F8D9
:102CC00004CB032A4FEAEC710AD00DE029E02AE098
:102CD00009F1070121F00702F2E802C1914609E07B
:102CE0000FFA8CFC4FEAEC71042A03D14FFA8CFCEA
:102CF0004FEAEC71002907DA0A460021DCF1000CEA
:102D000061EB02012D2202E0220504D52B228DF871
:102D10000420012203E0E20701D02022F7E79046D9
:102D200059E00A2102E010220DE010214FF0000AC4
:102D300000910BE010224FF0000A44F00404082731
:102D4000009203E008224FF0000A0092C4F30252FE
:102D5000022A05D059F804CB0021032A08D009E043
:102D600009F1070121F00702F2E802C1914605E0EE
:102D70001FFA8CFC042A01D10CF0FF0C4FF0000864
:102D8000220728D5702806D0009B83F0100353EA51
:102D90000A0305D00EE040228DF80420012208E04D
:102DA0005CEA010206D030228DF804208DF805007F
:102DB00002229046009B83F0080353EA0A030AD1DB
:102DC0005CEA010201D1620705D530228DF80420AA
:102DD0004FF001087F1E582804D034A003900EA89D
:102DE00002900DE036A0F9E753466046009AFDF7E1
:102DF0009EFA84460398825C0298401E02900270FC
:102E00005CEA0100F0D1029806A9081A00F1200A34
:102E1000600702D524F4803400E00127574502DD25
:102E2000A7EB0A0000E0002000EB0A0100900598E3
:102E30004144401A0590E00306D45B462146179AA8
:102E4000059800F0B3F90544002706E001A85A46AA
:102E5000C05D179990476D1C7F1C4745F6DBE0036A
:102E60000CD55B462146179A059800F09FF905445A
:102E700004E030205A46179990476D1C0099481E6F
:102E800000900029F5DC08E0029802995A46007883
:102E9000491C0291179990476D1CBAF10001AAF1E3
:102EA000010AF1DC65E1000009280100303132330C
:102EB0003435363738396162636465660000000076
:102EC0003031323334353637383941424344454660
:102ED0000000000000F058F90544761C3078002806
:102EE0007FF4ECAD19B02846BDE8F08F620700D43E
:102EF000062709F1070222F0070CFCE80223E1464D
:102F000003F000485FEA080C02D00FF2702C0DE0CD
:102F10005FEA045C02D50FF2682C07E05FEAC47C2C
:102F200002D00FF2602C01E0AFF2700C4FF0FF38CE
:102F300023F00043CDF850C065280CD006DC4528AE
:102F400009D046281DD047283DD13DE0662818D03D
:102F500067287ED138E00021112F01DB112000E02D
:102F6000781CCDE9000106A90EA8FFF7DDFCDDE91C
:102F70000F010E9A03910021009207F1010A0491BA
:102F80004DE04FF000400097CDE9011006A90EA8D2
:102F9000FFF7CAFCDDE90F0203920E9B1199002294
:102FA000DDF80CA00093049211B9791C00EB010A22
:102FB000B7EB0A0004D4C0F1FF3007F1010A049016
:102FC000AAEB0700019044E0012F00DA012700215D
:102FD000112F01DD112000E03846CDE9000106A9DE
:102FE0000EA8FFF7A1FCDDE90F010E9A0391002165
:102FF00004910092BA4621070CD40399514500DA96
:103000008A46BAF1010F05DD009AAAF10101515C6F
:10301000302908D0B84202DA10F1040F06DA012193
:10302000CDE9011015E0AAF10101E9E7002805DC6E
:10303000049901440491AAEB000102E0411C5145AE
:1030400000DD8A460499401A401C01904FF0004070
:103050000290200704D40198504501DBCDF804808C
:1030600000208DF84F0002980DF14F07B0F1004F8E
:1030700025D02B200E9002984FF0020800280CDA81
:10308000404202902D200E9007E00A210298FDF7A1
:1030900038F93031029007F8011DB8F10001A8F1AC
:1030A0000108F2DC02980028EFD1791E0E98087012
:1030B000307800F0200040F0450007F8020D12A81B
:1030C000C01B00F107081498007800B1012000EB44
:1030D0000A01019801EBE07105984144401A401E35
:1030E0000590E00306D45B462146179A059800F048
:1030F0005DF805441498007818B15A46179990471E
:103100006D1CE00324D55B462146179A059800F014
:103110004DF805441CE00498002807DBDDE90301B5
:10312000884203DD0098405C179901E01799302030
:103130005A469047049805F10105401C04900198F7
:10314000401E019004D12E205A46179990476D1CBD
:10315000BAF10001AAF1010ADDDC05E017F8010B64
:103160005A46179990476D1CB8F10001A8F1010863
:10317000F4DC5B462146179A0598ABE62D0000006B
:103180002B000000200000002DE9F041044600253E
:103190001E461746880404D405E039462020B0476F
:1031A0006D1C641EF9D52846BDE8F0812DE9F0417B
:1031B000044600251E469046C80301D5302700E08E
:1031C0002027880404D505E041463846B0476D1CE9
:1031D000641EF9D52846BDE8F0814A68002A06D069
:1031E0000A68531C0B6010704868401E48607047A6
:1031F0001CB506490520CDE9000100234FF40072FB
:1032000003A1074801F070F91CBD0000A0000020D8
:10321000765461736B424C454C6F61640000000052
:10322000F93A000870B5074D0446C1B22846FFF7C9
:103230000FFB80212846FFF78BFA0028F9D02046A3
:1032400070BD00000010014010B5FFF7D1FF00F085
:1032500013FE002010BD00002DE9F041184C0F4670
:103260000546E6682068001D00F080FC38B920683B
:1032700090F82C1001208840216981432161681C4D
:1032800007D137B12168BDE8F0410E48091D00F0B3
:10329000A6BC20683544B5424560216805D2A06BC4
:1032A000BDE8F041091D00F082BC606B091D00F013
:1032B0007EFCA06A854200D2A562BDE8F0810000D4
:1032C00040000020B85100202DE9F041054600F0F3
:1032D00093FC2E4CA068401CA06020682C4F10B1BD
:1032E000606940B32DE02560A068012829D100263F
:1032F00006EB860007EB800000F04BFC761C052EE9
:10330000F6D32348643000F044FC2148783000F0C4
:1033100040FC1F488C3000F03CFC1D48A03000F001
:1033200038FC1B48B43000F034FC1948643060634A
:103330001430A06305E02068E96AC06A884200D8BA
:103340002560606A401C60622864E96A0120226985
:1033500088401043206101EB810007EB8000291DAC
:1033600000F03DFC00F068FC606900280CD020688B
:10337000E96AC06A884207D206494FF08050086067
:10338000BFF34F8FBFF36F8FBDE8F0814000002087
:103390000451002004ED00E010B500F02DFC0E4CAF
:1033A0002068A0B90D4800F0F4FB0C48143000F080
:1033B000F0FB0A48E0601430206100220C210A2052
:1033C00000F042FE206010B105A100F0B7FCBDE89E
:1033D000104000F031BC00007C000020CC510020E7
:1033E000546D72510000000030B4026C0B46002A8C
:1033F0000BD0C1681144C1608468A14201D3016847
:10340000C16030BC1846FCF73BBF30BC70472DE9AB
:10341000F041856B174604460026026C82B1C7B1A5
:10342000E068FCF72DFFE168206C091AE160226872
:10343000914202D2A168081AE060022F16D017E06C
:103440002068A8B9A06801F0F5F806460020A06041
:103450000EE06068FCF714FF216C6068084460604F
:10346000A168884204D32068606001E005B16D1E48
:103470006D1CA5633046BDE8F08110B50446006BB5
:1034800000F0EEFB2046BDE8104000F0E9BB000074
:1034900010484FF4A041420706D0C01D0D4920F04E
:1034A0000700411AC1F5A0410B4A00230144C2E9BB
:1034B00000030839183A21F0070111604B600B60D6
:1034C0000B1AC0E9001393604FF000405360506145
:1034D00070470000C40000202C000020144E154C42
:1034E000A6F1A0074FF08058DFF84C9012E000BF23
:1034F00000F082FBF068C568281D00F037FBA0686B
:10350000401EA0606068401E606000F095FB284689
:10351000FFF7B3FF60680028EAD138680128F9D9BD
:10352000C9F80080BFF34F8FBFF36F8FF2E7000041
:10353000A45100204000002004ED00E02DE9F05FE0
:103540008846DDE90B941546834691009A460A9E0B
:10355000A522206BFCF7A6FE6FF00301206B01EBA8
:103560008501084420F00707780707D0502080F332
:103570001188BFF34F8FBFF36F8FFEE70025B8F1BF
:10358000000F0FD05FF00000221818F8001082F82A
:10359000341018F8001011B1401C0A28F4D384F834
:1035A0003D5001E084F83450052E00D30426E66235
:1035B000C4E91265201D00F0F7FA04F1180000F0CC
:1035C000F3FA2461C6F105006462A061256584F800
:1035D000545052465946384600F054FA2060B9F12A
:1035E000000F01D0C9F80040BDE8F09F30B5114987
:1035F00000E011460A688242FBD34B685C188442A3
:1036000003D1406818444860084643681C18944237
:1036100009D1084C183C2468A24209D052681A44C7
:1036200042600A6812680260814200D0086030BDC2
:103630000460F9E72C00002070B5002441600B4DB8
:103640000061914206D8D11A8269914206D2011DC9
:10365000286907E09A4203D2994201D3012403E08A
:10366000011DE86800F0A3FA204670BD7C00002030
:1036700010B5044600F0C0FAA06B28B15FF000045A
:1036800000F0DAFA204610BD0124F9E730B587B022
:10369000394D67E00498002864DB069C606910B12E
:1036A000201D00F063FA03A800F0D8F80246049841
:1036B0000A2857D2DFE800F00505052D334A050535
:1036C0002D3394F8280040F0010084F82800059973
:1036D000A069059B01442046FFF7AEFF68B3216A4D
:1036E0002046884794F8280040073BD500200090EA
:1036F0000598A169002342181946204601F0A8F850
:10370000D8B9502080F31188BFF34F8FBFF36F8F6C
:10371000FEE714F8280F20F00100207022E094F852
:10372000280040F0010084F828000598A06128B125
:10373000811813462046FFF77FFF13E0502080F3E7
:103740001188BFF34F8FBFF36F8FFEE794F8280007
:10375000810703D4204600F083FA03E020F0010043
:1037600084F82800002204A9286800F0E7FD00285A
:1037700090D107B030BD00007C0000202DE9FC4155
:103780000F46054600F0B0FB01A800F067F80446BC
:10379000019818B100F0D4FFBDE8FC81254EAFB10F
:1037A00030690068D0B30027291B3A46306800F022
:1037B000D9FA00F0C5FF0028EED11F494FF0805024
:1037C0000860BFF34F8FBFF36F8FE5E7A542EBD8DB
:1037D00000F0B6FFF0682746C068C468201D00F0FE
:1037E000C5F994F82800410719D5A0692B4641195D
:1037F0003A462046FFF720FFA8B1002003460146C5
:1038000000902A46204601F023F860B9502080F34A
:103810001188BFF34F8FBFF36F8FFEE707E020F0F3
:10382000010084F82800216A20468847B4E7012770
:10383000BAE700007C00002004ED00E00648416B80
:10384000096829B1416BC968C968496881627047D4
:103850004FF0FF31FAE700004000002070B5054648
:1038600000F07CFE064E0446B068844203D200F0AD
:1038700009F8012000E0002028602046B46070BDF7
:103880007C000020F8B5194D20E0C068C4680668C7
:10389000201D00F06BF9216A2046884794F8280023
:1038A000400713D5A0693044B04206D92461606056
:1038B000211DE86800F07BF908E00020034601467E
:1038C00000903246204600F0C3FF38B1E868016836
:1038D0000029DAD12969C5E90310F8BD502080F329
:1038E0001188BFF34F8FBFF36F8FFEE77C0000207E
:1038F00008484068401C4FF0500080F3118804D005
:10390000BFF34F8FBFF36F8FFEE7BFF34F8FBFF350
:103910006F8FFEE734000020074CE068016841B17A
:10392000C0680021D0F80000FFF728FFFFF7AEFEC7
:10393000F3E701210020F7E77C0000202DE9F041AA
:10394000044600F059F994F9455004F1240609E0C1
:10395000606A48B1304600F0B9FE08B100F052FA92
:103960006D1E6DB2002DF3DC4FF0FF3684F845601C
:1039700000F062F900F040F994F9445004F11007A6
:1039800009E0206948B1384600F0A0FE08B100F017
:1039900039FA6D1E6DB2002DF3DC84F84460BDE889
:1039A000F04100F049B900002DE9F041054600273B
:1039B00000F09AFA324E306808B9FFF769FD706975
:1039C00005424ED1C5B3083568070ED005F0070093
:1039D000C0F108000544680707D0502080F3118823
:1039E000BFF34F8FBFF36F8FFEE72DB37068854233
:1039F00037D82348183001460C6801E020460C46B1
:103A00006168A94202D221680029F7D131688C424D
:103A100027D007682168016060680837411B1029BA
:103A20000FD96019420708D0502080F31188BFF3E6
:103A30004F8FBFF36F8FFEE713E041606560FFF7C4
:103A4000D5FD61687068401A7060B268904200D21B
:103A5000B060706901430020C4E90001F068401CB7
:103A6000F06000F06DFE780707D0502080F31188D9
:103A7000BFF34F8FBFF36F8FFEE73846BDE8F0818D
:103A80001400002010B5031F4FF080741C601B1F32
:103A900021F001011960191F044B0B6014390A60F1
:103AA000091F6FF0020244380A6010BDF1380008A7
:103AB00070B514460D460646FCF712FC00E0047093
:103AC00029463046FCF70CFC0028F8D170BD08B53B
:103AD000FDF7F6F84FF4A060FDF742FB25208DF8C6
:103AE000000001208DF801008DF802008DF8030020
:103AF0006846FDF703FB08BDFDF7DEFAFFF7E7FFB9
:103B00004FF40074104D66004FF4FA7721462846B2
:103B1000FDF727FA31462846FDF723FA384600F02C
:103B200043F921462846FDF71EFA31462846FDF79F
:103B30001AFA384600F038F904A209A10320FCF76C
:103B40007FFEFEF7BDFBE1E7001402404F732053F8
:103B50007461636B206F766572666C6F776C6C0056
:103B60004572726F7221212100000000D0E90132FC
:103B700001699A60D0E901235A604A68824201D102
:103B800082684A60002202610868401E0860086876
:103B9000704700F108014FF0FF32C0E90112C16027
:103BA000016100210160704700210161704730B55B
:103BB0000B685A1C02D000F1080202E0026904E01E
:103BC0002246546825689D42FAD953684B60996033
:103BD0008A60516008610168491C016030BD42681B
:103BE0004A6093688B6093685960916008610168CE
:103BF000491C016070470000502080F31188BFF31A
:103C00004F8FBFF36F8F0A494868401C48600128F6
:103C10000CD10848006810F0FF0F07D0502080F347
:103C20001188BFF34F8FBFF36F8FFEE7704700001F
:103C30003400002004ED00E00849486828B1401E27
:103C4000486001D180F311887047502080F31188BB
:103C5000BFF34F8FBFF36F8FFEE7000034000020EB
:103C600070B500282AD0164DA0F108046068696973
:103C7000084207D1502080F31188BFF34F8FBFF364
:103C80006F8FFEE722683AB1502080F31188BFF3AE
:103C90004F8FBFF36F8FFEE78843606000F024F919
:103CA00060686968084468602046FFF79FFC2869DF
:103CB000401C2861BDE8704000F042BD70BD0000AE
:103CC000140000204FF0E0200021016181610549CE
:103CD0004FF47A720968B1FBF2F1491E4161072184
:103CE000016170470000002010B5FCF7B3FA1149DC
:103CF00010280ED300F1E02090F8F0030A789042EB
:103D000007D2502080F31188BFF34F8FBFF36F8F1E
:103D1000FEE709480068896800F4E060884207D936
:103D2000502080F31188BFF34F8FBFF36F8FFEE7F2
:103D300010BD0000340000200CED00E010B5084B71
:103D4000002200BF53F832401CB1521C082AF9D39C
:103D500010BD43F8321003EBC201486010BD0000F3
:103D6000C450002070B515460E460446FFF744FFC8
:103D700094F944100020491C01D184F8440094F9BE
:103D80004510491C01D184F84500FFF755FFA06B91
:103D900028B92A46314604F1240000F051F82046A3
:103DA000BDE87040FFF7CABD10B5020014D00F483F
:103DB000006B38B1502080F31188BFF34F8FBFF3F1
:103DC0006F8FFEE700F090F800211046FFF744FAED
:103DD00000F0B6FC002807D105494FF0805008607C
:103DE000BFF34F8FBFF36F8F10BD00004000002066
:103DF00004ED00E002490A6A0260C9684160704748
:103E00004000002001490120C861704740000020A7
:103E100010B50C4650B1094909681831FFF7C7FEC3
:103E20002046BDE810400121FFF716BA502080F36C
:103E30001188BFF34F8FBFF36F8FFEE74000002064
:103E400070B514460D4668B10A4909681831FFF784
:103E5000C6FE0CB14FF0FF3521462846BDE8704044
:103E6000FFF7FAB9502080F31188BFF34F8FBFF3EB
:103E70006F8FFEE7400000201CB517480024CDE9F5
:103E800000402346822215A1164800F02DFB012890
:103E900003D100F0B7FC012809D0401C1AD15020F2
:103EA00080F31188BFF34F8FBFF36F8FFEE7502071
:103EB00080F31188BFF34F8FBFF36F8F06484FF029
:103EC000FF312C38816201214161C460BDE81C4092
:103ED00000F040B81CBD00006C00002049444C4577
:103EE00000000000DD3400080248016B491C01633A
:103EF00070470000400000201448016B11B10121FF
:103F0000C16170470021C1610169B1FA81F1C1F15C
:103F10001F0101EB81020E4951F822306BB101EB18
:103F2000820101F108034A6852684A609A4201D14D
:103F300052684A60D16801607047502080F3118850
:103F4000BFF34F8FBFF36F8FFEE7000040000020EC
:103F5000045100201CB537480168374A914207D107
:103F6000502080F31188BFF34F8FBFF36F8FFEE7B0
:103F700000683149491E884207D1502080F31188DA
:103F8000BFF34F8FBFF36F8FFEE72C490878019086
:103F9000FF20087008788DF800009DF800009DF85B
:103FA000002000F0F000904207D0502080F31188EC
:103FB000BFF34F8FBFF36F8FFEE79DF80000204CDB
:103FC00000F0500020700720A06005E09DF8002060
:103FD00052008DF80020401E9DF800201206F5D4F6
:103FE000A060032807D0502080F31188BFF34F8FC3
:103FF000BFF36F8FFEE74FF44070A0600198087028
:104000000C482030016841F470010160016841F002
:1040100070410160FFF756FE00206060FCF7E2F897
:104020000848016841F040410160FCF7C7F80020F2
:104030001CBD000000ED00E071C20F4100E400E093
:104040003400002034EF00E02DE9F04117460E4621
:10405000050015D005FB06F05030FFF7A5FC040065
:104060000CD004F150009EB12060C4E90F562046E8
:10407000012100F00FF8204684F84C70BDE8F08173
:10408000502080F31188BFF34F8FBFF36F8FFEE78F
:104090002460EAE770B50D46040025D0FFF7ACFDBB
:1040A000D4E90F20216802FB0011A1600021A16367
:1040B000216861600A46D4E90F01401E00FB01211E
:1040C000E16021464FF0FF3001F8440F487004F1E1
:1040D00010008DB1FFF75DFD04F12400FFF759FDDD
:1040E000FFF7AAFD012070BD502080F31188BFF3B7
:1040F0004F8FBFF36F8FFEE721690029F0D000F0EA
:10410000E5FA0028ECD004494FF080500860BFF376
:104110004F8FBFF36F8FE3E704ED00E02DE9FF471A
:1041200082B01D468A464FF00008040003D0BAF161
:10413000000F08D011E0502080F31188BFF34F8F9B
:10414000BFF36F8FFEE7206C38B1502080F31188E9
:10415000BFF34F8FBFF36F8FFEE7022D0AD1E06BE5
:10416000012807D0502080F31188BFF34F8FBFF391
:104170006F8FFEE700F0E4F93F4F4FF000094FF07A
:10418000805648B9049838B1502080F31188BFF3A5
:104190004F8FBFF36F8FFEE7FFF72EFDA06BE16B34
:1041A000884207D3022D05D00498D0B1B8F1000F92
:1041B0001AD01EE02A4651462046FFF728F9616AC8
:1041C00019B104F1240000F081FA20B13E60BFF380
:1041D0004F8FBFF36F8FFFF72FFD012006B0BDE8B3
:1041E000F087FFF729FD22E06846FFF703FE4FF056
:1041F0000108FFF721FDFFF777FEFFF7FDFC94F9BB
:104200004400401C01D184F8449094F94500401CBE
:1042100001D184F84590FFF70FFD04A9684600F02E
:1042200029F930B12046FFF789FB00F089FA002018
:10423000D4E7FFF7E1FCA06BE16B884213D1FFF7F5
:10424000FBFC04F110000499FFF7E2FD2046FFF7A4
:1042500075FB00F075FA00289ED13E60BFF34F8FCA
:10426000BFF36F8F98E7FFF7E7FC2046FFF766FB89
:1042700000F066FA90E7000004ED00E02DE9F04759
:104280001F4690468946040003D0B9F1000F08D0BC
:1042900011E0502080F31188BFF34F8FBFF36F8F71
:1042A000FEE7206C38B1502080F31188BFF34F8FA8
:1042B000BFF36F8FFEE7022F0AD1E06B012807D012
:1042C000502080F31188BFF34F8FBFF36F8FFEE74D
:1042D000FFF70AFD5020EFF3118680F31188BFF33A
:1042E0004F8FBFF36F8FA06BE16B884206D3022F15
:1042F00004D0002086F31188BDE8F08794F945507A
:10430000A06B3A4649462046FFF781F8681C04D066
:104310006D1C84F845500120ECE7606A0028FAD053
:1043200004F1240000F0D2F90028F4D0B8F1000F15
:10433000F1D00121C8F80010EDE700002DE9F747A2
:10434000002683B08A46040003D0BAF1000F08D0DB
:1043500011E0502080F31188BFF34F8FBFF36F8FB0
:10436000FEE7206C38B1502080F31188BFF34F8FE7
:10437000BFF36F8FFEE700F0E3F8DFF8F4804FF053
:1043800000094FF0805748B9059838B1502080F3A4
:104390001188BFF34F8FBFF36F8FFEE7FFF72CFC41
:1043A000A56BC5B151462046FFF71EF86D1EA563EB
:1043B000206950B104F1100000F088F928B1C8F864
:1043C0000070BFF34F8FBFF36F8FFFF735FC0120F5
:1043D00006B0BDE8F087059808B11EB106E0FFF70A
:1043E0002BFC27E06846FFF705FD0126FFF724FCBC
:1043F000FFF77AFDFFF700FC94F94400401C01D15F
:1044000084F8449094F94500401C01D184F845900B
:10441000FFF712FC05A9684600F02CF8002820469A
:104420000AD0FFF78BFA00F08BF92046FFF720F94E
:104430000028B3D00020CBE7FFF71AF990B104F1C0
:1044400024000599FFF7E4FC2046FFF777FA00F017
:1044500077F90028A2D1C8F80070BFF34F8FBFF3DF
:104460006F8F9BE72046FFF769FA00F069F995E73F
:1044700004ED00E02DE9F0410C46050011D0C4B177
:10448000FFF7BAFB174BDA686E682068911B471C70
:1044900017D02F681B6A9F4219D0964217D8012463
:1044A00010E0502080F31188BFF34F8FBFF36F8F60
:1044B000FEE7502080F31188BFF34F8FBFF36F8F5B
:1044C000FEE70024FFF7B8FB2046BDE8F0818842F4
:1044D00005D9401A20602846FFF78CFCF1E7002040
:1044E0002060DCE7400000202DE9FF5F8346DDE926
:1044F0000E87994616468A469000FFF755FA050042
:104500001AD05820FFF750FA040012D0256300217A
:10451000CDE90241CDE900874B4632465146584627
:10452000FFF70CF82046FEF7CFFE012004B0BDE8EF
:10453000F09F2846FFF794FB4FF0FF30F6E70000AE
:104540000548416919B1006B18B10020704701207E
:104550007047022070470000400000200148C068FA
:1045600070470000400000202DE9F0412F4C00264C
:10457000206B28B1A069401CA0613046BDE8F081E5
:10458000E5686D1CE56013D1606B006838B15020A0
:1045900080F31188BFF34F8FBFF36F8FFEE7606B1F
:1045A000A16B6163A063206A401C2062FFF746F99B
:1045B000A06ADFF87C80854209D3606B0068A0B1F7
:1045C000606BC068C7687868854211D2A0622068B5
:1045D000C06A00EB800158F82100012800D90126AB
:1045E000E0690028C9D00126C7E74FF0FF30EDE7AA
:1045F000381DFFF7BBFAB86A18B107F11800FFF7CA
:10460000B5FAF96A0120226988401043206101EB64
:10461000810108EB8100391DFFF7E1FAF86A216892
:10462000C96A8842C9D30126C7E7000040000020BC
:104630000451002070B504004FF0000140D0214D1E
:104640002868844207D0502080F31188BFF34F8F31
:10465000BFF36F8FFEE7E06C38B1401EE064A36CDF
:10466000E26A9A422CD040B12AE0502080F31188AF
:10467000BFF34F8FBFF36F8FFEE7201DFFF776FA72
:10468000114A012150B9E06A00EB800352F823304F
:1046900023B92B6901FA00F083432B61A06CE0621F
:1046A000C0F10500A061E06A2B69814019432961CE
:1046B00000EB800002EB8000211DFFF790FA012142
:1046C000084670BD40000020045100202DE9F04153
:1046D000C068C468ACB104F118000746FFF746FA99
:1046E000154D286B0126A0B139461448FFF777FA1B
:1046F000E06A2968C96A88421CD90120EE61BDE8D8
:10470000F081502080F31188BFF34F8FBFF36F8F7C
:10471000FEE7201DFFF72AFAE16A2A6906FA01F08E
:104720001043286101EB810004498C3901EB8000C2
:10473000211DDBE70020E2E740000020905100202F
:104740002DE9F0472C4D00242746286B38B1FFF7A0
:1047500053FA286B401E2863286B40B146E0502076
:1047600080F31188BFF34F8FBFF36F8FFEE7A96807
:10477000224E0120D1B3A6F18C0980463068E8B101
:10478000F068C46804F11800FFF7F0F9201DFFF786
:10479000EDF9E06A2A6908FA00F11143296100EB9A
:1047A000800109EB8100211DFFF719FAE06A2968F1
:1047B000C96A8842E2D3C5F81C80DFE70CB1FFF775
:1047C0003DF8AC6944B14646FFF7CEFE00B1EE615C
:1047D000641EF9D10020A861E86938B108490127B1
:1047E00038070860BFF34F8FBFF36F8FFFF724FACE
:1047F0003846BDE8F08700004000002090510020BE
:1048000004ED00E01CB5FEF7C7FD0D48006868B177
:104810000B490220091DCDE9000100234FF48272EB
:1048200008A10A48FFF760FE002807D1502080F356
:104830001188BFF34F8FBFF36F8FFEE71CBD0000E1
:104840007C000020546D72205376630019390008F3
:10485000FEB51E4613460200089D4FF0000014D01E
:10486000124C2768002F0FD0CDE9001302920629C1
:1048700015DAFFF765FE02284FF000030DD0002285
:1048800069462068FFF74AFCFEBD502080F311887E
:10489000BFF34F8FBFF36F8FFEE72A46F0E7002389
:1048A000324669463846FFF7E9FCFEBD7C00002031
:1048B00053696E676C6520626C6F636B20B2E2CAED
:1048C000D4CAA7B0DCA3ACC7EBC8B7B1A35344BFED
:1048D000A8D5FDC8B7BDD3C8EBBFAAB7A2B0E5A3A2
:1048E000ACBBF2BBBBD2BBD5C55344BFA8B2E2CA76
:1048F000D4A3A10A00000000CEC2DCB0CCE1CABE45
:10490000A3BAB2BFB7D65344BFA8B2BBD6A7B3D6DB
:10491000B2C1B3FDB2E2CAD4A3ACC8F45344BFA839
:10492000C4DCCDA8B9FDCFC2C3E6B5C473696E6758
:104930006C65B6C1D0B4B2E2CAD4A3ACBCB4B1ED1C
:10494000CABE5344BFA8C4DCB9BBD5FDB3A3CAB922
:10495000D3C3A1A30A0000004D756C746920626C7A
:104960006F636B20B2E2CAD4CAA7B0DCA3ACC7EBBA
:10497000C8B7B1A35344BFA8D5FDC8B7BDD3C8EBD2
:10498000BFAAB7A2B0E5A3ACBBF2BBBBD2BBD5C537
:104990005344BFA8B2E2CAD4A3A10000BC49000896
:1049A00000000020C400000008290008804A000818
:1049B000C400002004F2010018290008007A030A4C
:1049C00000000000000000000102030406070809BF
:1049D00000000000000000000000000000000000D7
:1049E00000000000000000000000000000000000C7
:1049F00000000000AAAAAAAA00000000000000000F
:104A000000000000000000000000000000000000A6
:104A10000000000000000000000000000000000096
:104A20000000000000000000000000000000000086
:104A30000000000000000000000000000000000076
:104A40000000000000000000000000000000000066
:104A50000102030401020304060708090000000024
:104A60000000000000000000000000000000000046
:104A70000000000000000000000000000000000036
:040000050800018965
:00000001FF
